:100000000C9435040C9452040C9452040C94520435
:100010000C9452040C9452040C9452040C94520408
:100020000C9452040C9452040C945B170C943016EC
:100030000C941D220C9452040C9452040C945204FF
:100040000C9452040C9452040C9452040C945204D8
:100050000C9452040C949B180C9452040C9452046B
:100060000C9452040C9452040C9452040C945204B8
:100070000C9452040C9452040C9452040C945204A8
:100080000C9452040C9452040C9452040C94520498
:100090000C9452040C9452040C9452040C94520488
:1000A0000C9452040C9452040C945204140A140A32
:1000B000520A520A9B0AA60C4D0CA60CBB0AA70BAF
:1000C000B90BB90B090E0C0E0F0E120E150E180EF1
:1000D0001B0E011106111011041109110E110C1142
:1000E00077139113BD13FE1349144C145114541477
:1000F00057145A145D1460146314661469146C1454
:100100006F14741479147C147F14CD29F429942B62
:10011000F429942B3C2A5F2A942B5D2B702BCC2B3B
:10012000CC2BDF2BDF2BD52BDF2BDF2BDF2BCC2BAF
:10013000CC2BDA2BDF2BDF2BDA2B2E004C002A0006
:10014000E100354300001E00140004001D6134006E
:100150004D001F001A0016001B00E2002A002000BC
:1001600008000700060050002C00210015000900BF
:1001700019004F004A00220017000A000500000085
:100180000663AA0003530000025300004962A9005D
:100190000354000004540000E20023001C000B0084
:1001A000110000002961240018000D001000520009
:1001B0004B0025000C000E003600510028002600E0
:1001C00012000F0037002F002B00270013003342CE
:1001D000387130004E002D0031003468E5000151C7
:1001E00000000100010001000100010000003A00D0
:1001F0000100010001000100035D3B00010001005E
:1002000001000100CA5C3C00010001000100010086
:10021000C25C3D000100010001000100025D3E00E2
:1002200001000100010000000100010001000000C8
:1002300001000000015D010001000000010000005C
:10024000C65C3F000100010001000000C55C4000E9
:100250000100010001000100CA5C41000100010031
:1002600001000100C35C4200010001000100010027
:10027000C95C43004600010001000100C95C440064
:1002800045000100010001000000E000E1003C0029
:100290003D00240000001E00140004001D00250085
:1002A00045001F001A0016001B0026003F0020001A
:1002B00008000700060027003E0021001500090085
:1002C0001900E2004400220017000A0005000000A7
:1002D0004200230040000000010000004300010034
:1002E0000100000001000000010001001C000B00E3
:1002F000110000000100010018000D0010000100B5
:10030000010001000C000E00360001002800010071
:1003100012000F0037000100E1000100130001008E
:10032000380001000100010001002C002B00290011
:1003300000000100010001000100010000001E0496
:100340000100040401000100055D1F041A041604E5
:10035000010001000100200408040704010050040A
:100360002C0421041504090419044F04025D22041D
:100370000100010001000000C35C01000100000059
:1003800001000000045D0100010000000100000008
:10039000C25C230401000B0401000000005D240482
:1003A00001000D0401005204C65C250401000E0486
:1003B000010051042804260401000F04010001007B
:1003C000010027040100330401000100C55C0100A5
:1003D0000100010001000100000001000100010016
:1003E0000100010000001E061406010001000100CA
:1003F00001001F06010001000100010001002006AC
:1004000008060100060650062C0621061506010006
:1004100001004F060100220601000100010000005A
:1004200001000100010000000100000001000100C6
:10043000010000000100000001002306010001008E
:10044000010000000100240601000D060100520613
:100450000100250601000E060100510601002606D6
:1004600001000F060100010001002706010033060C
:100470000100010001000100010001000100010074
:10048000000000000000000000000000000000006C
:10049000000000000000000000000000000000005C
:1004A000000000000000000000000000000000004C
:1004B000000000000000000000000000000000003C
:1004C000000000000000000000000000000000002C
:1004D000000000000000000000000000000000001C
:1004E000000000000000000000000000000000000C
:1004F00000000000000000000000000000000000FC
:1005000000000000000000000000000000000000EB
:1005100000000000000000000000000000000000DB
:1005200000000000000000000000000000000000CB
:1005300000000000000000000000000000000000BB
:1005400000000000000000000000000000000000AB
:10055000000000000000000000000000000000009B
:10056000000000000000000000000000000000008B
:10057000000000000000000000000000000000007B
:10058000000000000000000000000000000000006B
:10059000000000000000000000000000000000005B
:1005A000000000000000000000000000000000004B
:1005B000000000000000000000000000000000003B
:1005C000000000000000000000000000000000002B
:1005D000000000000000000000000000000000001B
:1005E000000000000000000000000000000000000B
:1005F00069FFFF69FFFF69FFFF000000000000695D
:10060000FFFF69FFFF69FFFF0EFFFF0EFFFF0EFFF9
:10061000FF0EFFFF0EFFFF000000000000000000C3
:1006200000000000000000000000000000000000CA
:1006300000000000000000000000000001010101B6
:10064000010101010102020202020202020303038C
:100650000303030304040404040505050505060655
:1006600006060607070707080808080909090A0A0D
:100670000A0B0B0B0C0C0C0D0D0D0E0E0E0F0F10AC
:100680001010111112121313141415151616171732
:10069000181819191A1A1B1C1C1D1D1E1F1F20219A
:1006A0002122232324252526272828292A2B2C2CE0
:1006B0002D2E2F30313132333435363738393A3BFD
:1006C0003C3D3E3F404142434445464748494B4CF0
:1006D0004D4E4F50525354555758595A5C5D5E60B9
:1006E0006163646567686A6B6C6E6F71727476774C
:1006F000797A7C7D7F8182848687898B8D8E9092AA
:10070000949597999B9D9FA1A2A4A6A8AAACAEB0D0
:10071000B2B4B6B9BBBDBFC1C3C5C8CACCCED0D3B5
:10072000D5D7DADCDEE1E3E6E8EAEDEFF2F4F7F95B
:10073000FCFF05010980A1018503160100260300C5
:100740001A81002A8300751095018100C0050C09EB
:1007500001A1018504160100269C021A01002A9CB1
:1007600002751095018100C005010906A1018505EA
:10077000050719E029E71500250195087501810293
:100780000508190129059505750191029501750363
:1007900091010507190029EF1500250195F0750154
:1007A0008102C005010906A101050719E029E71525
:1007B00000250195087501810295017508810105E3
:1007C0000819012905950575019102950175039197
:1007D000010507190029FF150026FF009506750879
:1007E0008100C009023B00020100A0FA09040000D8
:1007F0000103010100092111010001224000070548
:10080000810308000A090401000103000000092116
:10081000110100012271000705820320000A120164
:10082000100100000008EDFE0713010001020301A2
:1008300004033000000016034500720067006F00DB
:1008400044006F007800200045005A0000001603A5
:100850004500720067006F0044006F0078002000C0
:1008600045005A0000000403090411241FBECFEF05
:10087000DAE0DEBFCDBF13E0A0E0B1E0EEE8F3E6E2
:1008800002C005900D92AE36B107D9F726E0AEE66C
:10089000B3E001C01D92A630B207E1F70E94ED1847
:1008A0000C94C5310C9400008F929F92AF92BF922E
:1008B000CF92DF92EF92FF920F931F93CF93DF932C
:1008C000CDB7DEB728970FB6F894DEBF0FBECDBF09
:1008D000FC01F080118183819481892B11F40C94A7
:1008E000990D1F3F29F40FEFF01611F40C94990D98
:1008F0006F0185E0DE01119601900D928A95E1F776
:10090000F601228189819A81222349F00E94D52310
:10091000082F682F89819A810E944E2403C00E946B
:100920002124082F26E0129FF001112434E5039FB3
:10093000E00DF11D1124EF0DF11DEE0FFF1FE65C20
:10094000FE4F05911491F60182810E3FFCE51F07D1
:1009500059F00F3F2CE5120709F446C0023C3CE574
:10096000130709F09CC062C0882309F40BC1909161
:10097000840381E0890F8770987F853020F4892B6C
:100980008093840302C090938403809184038770D2
:10099000EFEF8E9FC00111249595879595958795CA
:1009A0009927909389008093880090938B0080937F
:1009B0008A0090938D0080938C0040918403509125
:1009C000850360918603709187038FE090E00E9419
:1009D000BC2E6091BA057091BB058091BC059091C9
:1009E000BD050E94E710CEC0882309F4CBC08091DA
:1009F000840383FB222720F991E0922790FB83F95F
:100A000080938403992329F040E060E080E00E9415
:100A10009C1F4091840350918503609186037091DF
:100A200087038FE090E00E94BC2EACC0882311F4B5
:100A30000C94990D90911701809184039F3F59F474
:100A4000109217018F7E8093840340E060E080E085
:100A50000E949C1F06C09FEF9093170180618093B6
:100A600084034091840350918503609186037091C3
:100A700087038FE090E028960FB6F894DEBF0FBE94
:100A8000CDBFDF91CF911F910F91FF90EF90DF903D
:100A9000CF90BF90AF909F908F900C94BC2E02305F
:100AA000FDE51F0731F150F401153DE5130709F489
:100AB0009EC001309DE5190769F064C00430EDE582
:100AC0001E0709F448C0C0F105302DE5120709F4EE
:100AD00050C058C0882311F40C94990D81E00E94F5
:100AE000A81F84E18093FE0584EE8093FF0583EDCB
:100AF0000DC0882311F40C94990D81E00E94A81F69
:100B00008CEA8093FE058FEF8093FF0580930006AB
:100B100028960FB6F894DEBF0FBECDBFDF91CF9100
:100B20001F910F91FF90EF90DF90CF90BF90AF900B
:100B30009F908F900C94A01F882311F40C94990D12
:100B400081E00E94A81F87E58093FE058BEF8093CC
:100B5000FF058AEFDBCF882311F40C94990D81E017
:100B60000E94A81F1092FE0585E08093FF0587EF85
:100B7000CDCF882311F40C94990D81E00E94A81F19
:100B80008BE1BFCFF6018281882381F0033E3CE5F3
:100B9000130709F46AC008F05DC0013E9CE519071F
:100BA00009F051C0109280030E94122117FFD1C09A
:100BB000F601828181115FC00B3CFCE51F0709F43F
:100BC0001DC108F435C1033D9CE5190709F460C354
:100BD00008F065C30F3CFCE51F0709F447C708F0A0
:100BE00055C70D3C3CE5130739F4F6018281882393
:100BF00009F49FC781E013C00E3C1C4508F40AC1EC
:100C0000F6018281882309F494C78091FD058695B9
:100C10008695825C8F73833008F446C182E0289603
:100C20000FB6F894DEBF0FBECDBFDF91CF911F91FD
:100C30000F91FF90EF90DF90CF90BF90AF909F907B
:100C40008F900C94A81F023EECE51E0709F0AECF72
:100C500081E00EC0043EFCE51F0749F0053E2CE58F
:100C6000120709F0A3CF84E003C082E001C083E053
:100C70008093800399CF8091C60580936E03109274
:100C8000C60580918003813071F048F08230D1F048
:100C90008430F1F486EE0E94862D88E117C082EE42
:100CA0000E94752C15C08CEB9DE00E94A52888E160
:100CB0000E94752C88E10E94192C8CEA9DE00E940C
:100CC000A52806C082EE0E94752C87E50E94862D1D
:100CD0008FE39CE90197F1F700C000007801E894E8
:100CE000F7F85CE0A52EB12CC7010A2C02C096953E
:100CF00087950A94E2F7282F2F7041F0822F90E019
:100D00002A3010F44D9604C0069702C087E290E0A6
:100D10000E94862D94E0A91AB108ECEFAE16EFEF11
:100D2000BE0611F780918003813039F040F08230A7
:100D300031F0843051F488E206C08CE204C082EEC7
:100D40000E94192C02C00E94862D80916E03809310
:100D5000C605003FFCE51F07B1F180F4083D3CE506
:100D60001307C9F0093D8CE51807C9F1073D9CE55B
:100D70001907C1F526E241EE61EE10C0023FECE535
:100D80001E0749F120F1033F2CE5120759F527E230
:100D900045EE66EE03C027E245EE65EEC6012896F5
:100DA0000FB6F894DEBF0FBECDBFDF91CF911F917C
:100DB0000F91FF90EF90DF90CF90BF90AF909F90FA
:100DC0008F900C945B2126E241EE60EEE7CF27E2A4
:100DD00045EE64EEE3CF26E241EE62EEDFCF28E29D
:100DE00041E0DBCFF6018281882319F010926F0376
:100DF000E3CE0B3CFCE51F0709F040C2F6018281FF
:100E0000882309F496C62091010630E1230F08F4E7
:100E10002FEF0BC0F6018281882309F48AC6209146
:100E2000010630E1231B08F420E02093010670CE78
:100E3000033C3CE51307E9F4F6018281882309F4B9
:100E400078C68091C605827279F128960FB6F8941B
:100E5000DEBF0FBECDBFDF91CF911F910F91FF90ED
:100E6000EF90DF90CF90BF90AF909F908F900C94B9
:100E7000B41F043C8CE5180758F1073C9CE51907A2
:100E800009F4A1C508F0ABC5053CFCE51F0709F452
:100E9000B9C508F0C0C5F6018281882309F449C6A6
:100EA0008091C605827289F228960FB6F894DEBF4B
:100EB0000FBECDBFDF91CF911F910F91FF90EF90AB
:100EC000DF90CF90BF90AF909F908F900C94CA1FEF
:100ED00006319CE5190708F086C10230ECE51E07D3
:100EE00008F429C1F6018281882309F436C20E94E0
:100EF000BA22811102C00E94C5220E94A9229093A9
:100F00009703809396030F30FCE51F0709F4CDC0CB
:100F100008F042C008303CE5130709F4A8C0F0F41B
:100F200004309CE5190709F490C068F40230FCE530
:100F30001F0709F486C003301C4509F0D9C0809111
:100F400096038260D3C006303CE5130709F487C0DE
:100F500008F089C0809196038860C8C00B309CE57A
:100F6000190709F493C068F40930FCE51F0709F478
:100F700082C00A301C4509F0BBC08091960388608E
:100F80007EC00D303CE5130709F484C008F085C02D
:100F9000809196038D7FAAC0073F9CE5190709F44D
:100FA00057C050F50231FCE51F0709F486C068F40C
:100FB00000313CE5130709F47CC001311C4509F000
:100FC00097C0809196038F7B91C004319CE51907EF
:100FD00009F483C008F475C005311C4509F088C0C8
:100FE0008091960382FB222720F991E0922790FBC3
:100FF00082F990FB83F97AC00A3F2CE5120709F4C5
:1010000050C058F4083F8CE5180729F1093F1C45EA
:1010100009F06EC0809197035CC00C3FECE51E07A1
:1010200009F454C070F10D3F1C4509F061C0809176
:101030009703982F909591708E7F892B90FB81F963
:1010400049C080919603816051C08091960317C07A
:101050008091970319C08091970382603BC0809173
:101060009603806143C08091960380623FC0809167
:10107000960380643BC080919603806837C084608B
:1010800035C0809197038260816024C0809196036F
:101090008E7F2CC08091960317C080919603877F26
:1010A00025C0809197038D7F15C0809196038F7E18
:1010B0001DC0809196038F7D19C0809196038F7714
:1010C00015C080919603877F8B7F10C08091970316
:1010D0008D7F8E7F809397030BC08091960387FB53
:1010E000222720F991E0922790FB87F980939603BD
:1010F000609196031091970384E090E00E94AA2EDD
:10110000612F81E290E00E94AA2E1092C6052896D7
:101110000FB6F894DEBF0FBECDBFDF91CF911F9108
:101120000F91FF90EF90DF90CF90BF90AF909F9086
:101130008F900C94F12B0115FCE51F0709F044C0BA
:10114000F6018281882309F4F4C41092C6050E9436
:10115000F12BFFEF04E31CE0F15000401040E1F7F9
:1011600000C00000F89481E08093E00080E280936A
:10117000D8001092C9008FE19EE40197F1F700C0FA
:1011800000001DBA109268001CBC10BE1FBA10925D
:101190007A0010926E0010926F00109271001092FF
:1011A00072001092C9001092BC0014B817B81AB897
:1011B0001DB810BA1092BC0015B818B81BB81EB8EC
:1011C00011BA0C94003FB5C401301C4509F0C5C0EC
:1011D000F6018281882309F4ACC48091AA0381605E
:1011E0008093AA03A6C406313CE51307A9F59091A4
:1011F000C605F6018281882381F09A7A81E009F49C
:1012000080E080937003811102C069E201C065E350
:1012100089E295E00E9471220BC0809170038111D8
:1012200002C069E201C065E389E295E00E944622BE
:1012300028960FB6F894DEBF0FBECDBFDF91CF91D9
:101240001F910F91FF90EF90DF90CF90BF90AF90E4
:101250009F908F900C948F23023C1C4509F07DC019
:10126000F6018281882309F464C49091FD0581E030
:1012700089278093FD05109206014ACC0C3C2CE591
:10128000120708F479C0033D9CE5190709F0E8C38B
:10129000F6018281882309F44CC488E1C0CC0D3D5D
:1012A000FCE51F0749F4F6018281882309F441C453
:1012B00082E080937D033DC40E3D2CE5120750F57E
:1012C000053D3CE5130739F4F6018281882309F4D2
:1012D00030C483E2A4CC053D8CE5180780F4F60108
:1012E0008281882309F425C48091FD058695869521
:1012F000895D8F73893008F4D7CD89E190CC0C3D9E
:101300001C4559F5F6018281882309F412C4109214
:101310007D030FC40E3DECE51E07C9F4F601828182
:10132000882309F406C428960FB6F894DEBF0FBED2
:10133000CDBFDF91CF911F910F91FF90EF90DF9084
:10134000CF90BF90AF909F908F900C94C522C80112
:10135000875F9C45079708F4C5CDF601828100811F
:101360001181882331F1C8010E94D523F82E682FFE
:10137000C8010E944E2421C0033C3CE5130709F438
:101380005BCD08F07ACD06319CE5190708F011C352
:101390000230ECE51E0708F0A5CD0115FCE51F079E
:1013A00009F4CECE01301C4509F412CFF6010081BC
:1013B0001181C8010E942124F82EB8018F2D0E94AE
:1013C0006E0E182F382FF601258122952F7002817D
:1013D00001111092C0058091BE058770A9F000230D
:1013E00099F080E2810F883078F082E02F8338878F
:1013F0009E830E94AF248091BE058770EE24E39403
:101400002F8138859E818111E12CA92EA2944FE075
:10141000A422B12CFCE0AF16B10408F097C2F5018C
:10142000EA5AFF4F0C949230892F807F9F70F92EDB
:10143000882319F0F29480EFF8220023B9F0FF20FE
:1014400009F415C280E2810F883010F0311106C016
:101450009091C605F92AF092C60505C09091C00585
:10146000F92AF092C0050E948F2301C2812F38878C
:101470000E94192C3885FF2009F468C2105EF09490
:10148000183010F0311106C09091C605F922F09283
:10149000C60505C09091C005F922F092C0050E94D2
:1014A0008F2354C2492F407F892F8F70403211F013
:1014B0008295807F332319F03130E9F025C0002375
:1014C00081F03091C105222351F0213041F4982F51
:1014D000932B391709F43AC29093C10537C2832B75
:1014E00017C0222319F0213009F430C28E830E94E4
:1014F00089238E811DC0002321F0223008F026C2EE
:1015000007C0211123C214C0002329F02111AFC14B
:101510000E940F2C1BC2222359F0193309F0B9C1C4
:101520000FEF27EE33E0015020403040E1F7AFC12C
:101530000E94042C0BC2292F26952695237030E09B
:101540002115310521F02130310559F0FFC100236B
:1015500019F0812F937002C080E090E00E946D1F0F
:10156000FEC1002319F0812F937002C080E090E04B
:101570000E94571FF4C1892F837009F070C00111B8
:10158000ECC1812F829586958770880F880F412F37
:101590004F7050E060E070E04A015B01082E04C02B
:1015A000880C991CAA1CBB1C0A94D2F714FF12C009
:1015B0000FE010E020E030E004C0000F111F221FF8
:1015C000331F8A95D2F7B901A801409550956095CF
:1015D000709503C040E050E0BA01969596959370DF
:1015E000892F90E08230910529F183309105C9F06F
:1015F0000091C2051091C3052091C4053091C50525
:10160000019759F0482959296A297B29CB01BA0148
:1016100060237123822393230AC0802A912AA22A5D
:10162000B32ACB01BA01682979298A299B290E940A
:10163000E92493C1482959296A297B298091C20547
:101640009091C305A091C405B091C5058A019B0185
:10165000082719272A273B27C901B801E8CF00230B
:1016600019F0892F817001C08695882309F475C10E
:10167000812F829586958770880F880F412F4F7034
:1016800050E060E070E04A015B01082E04C0880C65
:10169000991CAA1CBB1C0A94D2F714FF12C00FE0BD
:1016A00010E020E030E004C0000F111F221F331FA4
:1016B0008A95D2F7B901A80140955095609570952B
:1016C00003C040E050E0BA01969596959370892F3B
:1016D00090E082309105E9F08330910579F1009135
:1016E000BA051091BB052091BC053091BD0501974D
:1016F00059F0482959296A297B29CB01BA0160236D
:1017000071238223932320C0802A912AA22AB32AFC
:1017100015C0482959296A297B298091BA059091D9
:10172000BB05A091BC05B091BD058A019B010827AE
:1017300019272A273B27C901B80106C0CB01BA01E6
:10174000682979298A299B290E947E2406C19F70D5
:10175000F92E002339F0892F0E94C824812F0E947E
:101760000F2CFBC0812F0E94042C8F2D0E948A24F5
:10177000F4C0812F323FC9F128F4303F49F0313FA6
:1017800079F170C0333FC1F1343F09F44DC06AC0F4
:10179000002311F12111DAC0292F2F7181E090E08F
:1017A000A0E0B0E0AC01BD0104C0440F551F661FAE
:1017B000771F2A95D2F78091BA059091BB05A09129
:1017C000BC05B091BD058A019B01082719272A276E
:1017D0003B27C901B80125C0223008F0B7C0DCCFD3
:1017E000002329F0892F8F712EC00023D9F3892F70
:1017F0008F710E948A24AAC0002381F0292F2F71A3
:1018000081E090E0A0E0B0E0BC01CD0104C0660F33
:10181000771F881F991F2A95D2F703C060E070E0F8
:10182000CB010E947E2492C0002381F0192F1F71EA
:10183000812F0E94C82428E0129FC00111248360D8
:101840008093BE05812F0E94C82480C081E02F8331
:101850000E94AF242F81223008F478C082E00E94D9
:10186000AF2474C0002339F0222309F4BBCF812FA9
:101870000E94752C6BC0222309F4B9CF893349F437
:101880003FEF87EE93E0315080409040E1F700C099
:101890000000812F0E94192C59C0323FB1F028F46A
:1018A000303F49F0313FF9F028C0343FB9F058F0EB
:1018B000353F71F022C0002309F451C090914A05D0
:1018C00081E0892708C081E0082700934A0547C0C6
:1018D000011145C081E080934A0541C001113FC01C
:1018E00010924A053CC0002329F0809149058823C5
:1018F00029F329C0222311F332C080914905222304
:10190000C1F0882341F090914A0581E089278093B6
:101910004A0510924905812F002319F00E94752C69
:101920001EC00E94192C86E0F60111928A95E9F7F3
:1019300016C08823A1F0011112C090914A0581E0E0
:10194000892780934A051092490509C0F8E0AF1A2B
:10195000B10804E0A016B10410F40E94831FEE2029
:1019600009F4E7C08091BE0580FDE3C0F601128254
:101970008595859585950E94C824C6010E945404CA
:101980008091BE0585958595859528960FB6F89426
:10199000DEBF0FBECDBFDF91CF911F910F91FF90A2
:1019A000EF90DF90CF90BF90AF909F908F900C946E
:1019B0008A2406313CE5130709F419CC023C1C4586
:1019C00009F44ECCF3CCF6018281882309F4B1C02E
:1019D0002091FF0530E1230F08F42FEF10C0093CE0
:1019E0003CE5130719F170F5F6018281882309F4AB
:1019F000A0C02091FF0530E1231B08F420E02093D4
:101A0000FF0586C8F6018281882309F492C080917F
:101A1000FE05885F08C0F6018281882309F489C029
:101A20008091FE0588508093FE0572C8F601828180
:101A3000882309F47EC02091000630E1230F08F4CA
:101A40002FEF0BC0F6018281882309F472C0209128
:101A5000000630E1231B08F420E02093000658C85C
:101A6000043DECE51E0708F4B5C845C0F6018281C7
:101A7000882309F45EC08091FD0586958695865C75
:101A80008F73823008F410CA86E0C9C8013D9CE516
:101A9000190781F4F6018281882309F44AC08091F4
:101AA000FD05869586958F5C8F73853008F4FCC99B
:101AB0008FE0B5C8023D1C4578F4F6018281882389
:101AC000C1F18091FD0586958695895C8F7385307F
:101AD00008F4EAC989E0A3C8F6018281882349F1A4
:101AE0008091FD0586958695855D8F73823008F41B
:101AF000DBC985E194C80D3DFCE51F0709F4D3CB94
:101B000060F4053D3CE5130709F4DECB08F4E7CBB0
:101B10000C3D1C4509F4F6CB49CC0E3DECE51E0707
:101B200009F4FCCBC801875F9C45079708F4DAC924
:101B30003DCC28960FB6F894DEBF0FBECDBFDF9127
:101B4000CF911F910F91FF90EF90DF90CF90BF90BA
:101B5000AF909F908F900895282F277081E090E09C
:101B600001C0880F2A95EAF780959091C0058923D6
:101B70008093C0050C948F23282F277081E090E07C
:101B800001C0880F2A95EAF79091C005892B8093B0
:101B9000C0050C948F23CF93E82F873080F5809178
:101BA000090190910A01892B09F047C0CE2F64E604
:101BB00070E080E40E949F2D90930A0180930901B8
:101BC000892BD1F464E670E082E10E94F62D9093B7
:101BD0000A0180930901892B79F481E090E001C02A
:101BE000880FCA95EAF764E670E080950E94F62DAA
:101BF00090930A0180930901CF910C94722E90E08A
:101C0000FC013797E730F105C0F4EE59FF4F0C9413
:101C10009230209A289811C0219A29980EC0229AB1
:101C20002A980BC0239A2B9808C0529A5A9805C03C
:101C3000539A5B9802C03E9A4698CF910895CF93ED
:101C4000873008F03FC08091090190910A01892BEB
:101C500009F041C064E670E080E40E949F2D9093FB
:101C60000A0180930901892B11F0C0E027C064E6C6
:101C700070E083E10E94F62D90930A0180930901A0
:101C8000892B99F764E670E081E40E949F2D909380
:101C90000A0180930901892B41F784E690E00E94B4
:101CA000262E97FF05C090930A0180930901DDCF8E
:101CB000C82FC09510920A01109209010E94722E3D
:101CC0008C2F0AC09FB18FB1807F869586959370C7
:101CD000892B809501C080E0CF910895CF93DF9349
:101CE00026E0729FF001112434E5839FE00DF11D81
:101CF0001124E60FF11DEE0FFF1FE65CFE4FC591AC
:101D0000D491CE01C238D10569F1B0F4C133D10507
:101D100009F475C048F4C932D10509F469C0CA3262
:101D2000D10509F473C079C0C533D10509F459C090
:101D3000C933D105B9F071C0C33ED10571F138F492
:101D4000C03ED105B1F0C23ED10511F166C0C63E1C
:101D5000D105B9F1C73ED105C9F1C43ED10509F09D
:101D60005CC024C02091960320FD29C221FD27C21A
:101D70002BC22091960320FD1CC22091970320FFC7
:101D800023C28091960384FDC6C183EE90E01CC2FD
:101D90002091960322FF18C2F4CF8091960382FD12
:101DA0000BC28091970380FD0AC2EBCF209197036D
:101DB00021FF0AC28091960384FDADC187EE90E0B9
:101DC00003C22091960323FFFFC1F4CF80919603B5
:101DD00083FDF8C18091970381FFECCF84EE90E002
:101DE000F3C12091960325FFEFC189E290E0ECC199
:101DF0002091960325FFE8C185E390E0E5C120919D
:101E0000960326FFE1C18AE290E0DEC120919603AD
:101E100026FFDAC181E390E0D7C1C11540E5D407C0
:101E200008F047C0C11520E4D20708F034C1C83E0D
:101E3000D10518F5C03ED10508F0C6C1C83AD10594
:101E400070F4C53AD10508F0B1C0C130D10509F42C
:101E5000BBC108F460C1249708F45DC1B5C1CF3B94
:101E6000D10508F4AEC0C03CD10508F454C1FE0150
:101E7000EE0FFF1FEE54FB4F03C1C11530E2D30735
:101E800060F4C11541E0D40708F09EC1C03FD10500
:101E900008F441C1CE01906597C1C11580E3D80710
:101EA00008F0F1C0FE01FF70EE0FFF1FEE5CF94F6E
:101EB000E7C0C11595E5D90708F044C0C11524E570
:101EC000D20708F002C1C11532E5D30710F5C115DC
:101ED00041E5D40708F0E4C08C2F837021E030E0A6
:101EE00002C0220F331F8A95E2F73C68CE0174E0EE
:101EF000969587957A95E1F78370382BEC2FEF70E4
:101F0000E695E69540E2E49FC0011124822B932BD5
:101F10005BC12C2F26952695AE0143705527C11520
:101F2000D34508F0C3C080E2289F9001112481E0CE
:101F300090E002C0880F991F4A95E2F7822B932BFD
:101F40009C6842C1C1159AE5D907A8F4C11529E5D5
:101F5000D20708F0C9C0C11536E5D30708F4BBC0E5
:101F6000C11548E5D40708F4D6C0FC2FEE27CF01F1
:101F7000806F906A29C1C1158BE5D80708F4CBC0E2
:101F8000C1159CE5D90708F4C2C0CE019056811551
:101F9000904208F0C0C08D2F8F710E941821FE0161
:101FA000FF27F0628F719F01382BAFC0C53AD10572
:101FB00009F4B4C0C63AD10509F0B3C082E890E490
:101FC00003C1C83AD10509F4AFC0C93AD10509F433
:101FD000AEC0CA3AD10509F4ADC0CB3AD10509F477
:101FE000ACC0CC3AD10509F4ABC0CB3BD10509F468
:101FF000AAC0CC3BD10509F4A9C0CD3AD10509F45A
:10200000A8C0C03BD10509F4A7C0CE3AD10509F458
:10201000A6C0CF3AD10509F4A5C0C13BD10509F44A
:10202000A4C0C23BD10509F4A3C0C33BD10509F448
:10203000A2C0C43BD10509F4A1C0C53BD10509F438
:10204000A0C0C63BD10509F49FC0C73BD10509F428
:102050009EC0C83BD10509F49DC0C93BD10509F418
:102060009CC0CD3BD10509F49BC0CE3BD10509F402
:102070009AC0CA3BD10509F499C080E094E4A4C099
:1020800085919491A1C0CE019927D3FF02C0986C8D
:102090009BC0906C99C0FE01FF70CF01906A94C004
:1020A000FC2FEE27CF01816F906A8EC090E2299FAE
:1020B0009001112481E090E002C0880F991F4A9599
:1020C000E2F7822B932B9A687FC0FC2FEE27CF017B
:1020D000846F906A79C08C2F0E9418218F7190E0D4
:1020E000982F8827906270C08C2F8F700E941821C3
:1020F000FE0194E0F695E7959A95E1F7EF70F0E030
:10210000FE2FEE27F0699F01282BC9015DC0CE018B
:102110009927906659C080E090E056C081E890E42D
:1021200053C083E890E450C082EE94E44DC089EE41
:1021300094E44AC08AEE94E447C085EB94E444C03A
:1021400086EB94E441C083EB94E43EC084EB94E4DA
:102150003BC087EB94E438C08CEC94E435C08DEC44
:1021600094E432C083E895E42FC08AE895E42CC05B
:1021700082E995E429C084E995E426C081E296E4E9
:1021800023C083E296E420C084E296E41DC085E289
:1021900096E41AC086E296E417C087E296E414C07B
:1021A0008FE694E411C080E794E40EC08AE296E4DE
:1021B0000BC089E390E008C082EE90E005C080EE9D
:1021C00090E002C086EE90E0DF91CF910895CF922B
:1021D000DF92EF92FF926B017C010E9439235698A7
:1021E0005E9825982D9826982E9827982F9890E0FD
:1021F000FC013197E730F105A8F4E759FF4F0C9443
:102200009230259A2D9A0EC0259A2D9A269A2E9AAA
:1022100009C0259A2D9A04C0259A2D9A269A2E9A9D
:10222000279A2F9AC701B601FF90EF90DF90CF90C9
:10223000089580E290E090930A01809309018091D3
:10224000780381110EC00E94992D81E0809378035C
:102250002FEF83ED90E3215080409040E1F700C0E4
:10226000000064E670E080E40E949F2D90930A01D4
:1022700080930901892B09F04EC064E670E080E08C
:102280000E94F62D90930A0180930901892B09F091
:1022900042C064E670E080E00E94F62D90930A014F
:1022A00080930901892BB9F564E670E08FE30E9401
:1022B000F62D90930A0180930901892B61F50E9404
:1022C000722E64E670E080E40E949F2D90930A01D4
:1022D00080930901892BF9F464E670E08CE00E9498
:1022E000F62D90930A0180930901892BA1F464E6ED
:1022F00070E080E00E94F62D90930A01809309011E
:10230000892B49F464E670E08FE30E94F62D9093E8
:102310000A01809309010E94722E8091090108959B
:10232000CF93DF9356985E9825982D9826982E98EF
:1023300027982F98C8E8D0E08FEF90E099838883A2
:10234000AAE8B0E011969C938E93ECE8F0E09183BC
:102350008083259A2D9A2FEF80E792E021508040CC
:102360009040E1F700C00000269A2E9A2FEF80E7F8
:1023700092E0215080409040E1F700C00000279A91
:102380002F9A2FEF80E792E0215080409040E1F7B4
:1023900000C0000025982D982FEF80E792E0215093
:1023A00080409040E1F700C0000026982E982FEF63
:1023B00080E792E0215080409040E1F700C00000AB
:1023C00027982F988091840387702FEF829FC001F8
:1023D0001124959587959595879599279983888355
:1023E00011969C938E939183808356985E9825983E
:1023F0002D9826982E9827982F98DF91CF910895A1
:1024000084B1807F84B985B1807F85B98AB1837FAB
:102410008AB98BB1837F8BB93E984698089580B373
:102420008C7080BB81B3836F81BB08954F925F92A4
:102430006F927F928F929F92AF92BF92CF92DF92D4
:10244000EF92FF920F931F93CF93DF931F92CDB71D
:10245000DEB78091090190910A01892B91F080915A
:1024600077038F5F8093770381110BC00E9419114E
:1024700090E090930A0180930901892B11F40E9446
:10248000901138E8E32E33E0F32E4FE8C42E43E0FA
:10249000D42E5701912C10E007E0090D892D0E94E0
:1024A000CB0D802F0E94CB0D892D0E941F0ED501D0
:1024B0009C91981721F08C938824839401C0812CDF
:1024C000802F0E941F0EF6019081981719F08083CB
:1024D00081E001C080E08829182B0E9400129394AB
:1024E000FFEFAF1ABF0A2FEFC21AD20A37E09312DA
:1024F000D3CF0E9411226AEF70E00E946A30BC01C3
:10250000482F809172038823D9F110927203E091D1
:102510007E03F0917F03DF011E9690E08BEF2AEFA0
:10252000A22EB12C20812B3F99F0C22ED12C421724
:1025300020F09B012C193D0905C095012C193D097E
:10254000260F371F2F30310514F0808301C091E032
:102550003196EA17FB0731F790937203111102C00D
:10256000911110C01092710360917E0370917F03EE
:1025700090917203EBE9F3E080E03EE03E0F32C061
:102580001111F0CF809171038111ECCF6091730331
:102590007091740380917503909176030E94C11825
:1025A0002FB7F8948090790390907A03A0907B03E2
:1025B000B0907C032FBF8092730390927403A0921B
:1025C0007503B09276034090F9055090FA0560903B
:1025D000FB057090FC05AFEF4A165A066A067A06AC
:1025E000D1F43AC0D7012D917D015081521749F0A5
:1025F000DB015C915B3F21F44C93208391E001C0AF
:1026000081E06F5F7F4F31963E13ECCF9093720362
:1026100080937103BBCFAB01BC01662777276A01AA
:102620007B01C094D094E094F094C414D504E604E3
:10263000F70420F48FEF9FEFDC0106C0DB01CA0135
:10264000840D951DA61DB71D8093F9059093FA057D
:10265000A093FB05B093FC05F090BA03F11009C0FC
:102660009091FD05892F837021F0792E76947694D0
:1026700001C0712C809106018130A1F038F08230C8
:1026800009F454C1833009F45EC16EC11092160181
:102690008092F5059092F605A092F705B092F805A4
:1026A00081E04EC180910801781210C08091FD0533
:1026B000837090E02091070130E051E040E0821704
:1026C000930709F450E0252F342F02C021E030E0B9
:1026D000822F817080931801872D90E085319105BC
:1026E00008F012C1FC01E059FF4F0C949230909118
:1026F0001601232B09F408C1E92EEE0CEE0CE90EAD
:1027000005E00E0D013308F000E3E01608F0BDC04F
:1027100020E040E060E08E2D90E00E949E1FE39458
:10272000F4CF90911601C92ECC0CCC0CC90E05E04B
:102730000C0D013308F000E36091FE057091FF0578
:10274000809100060E947920E62ED82EC01608F04F
:102750009CC0EC2DF0E0DF01A35CBC4F8C9190910C
:102760001701982341F02D2D4E2D672FCF0179832E
:102770000E949E1F7981C394E9CF80911601A82EF3
:10278000AA0CAA0CA80E35E03A0D313308F030E35C
:10279000E090FF05B09000062091010600E4029F42
:1027A000012D1124A31628F5CA2CD12CF601E35CC7
:1027B000FC4F8081909117019823C9F0F601EE0F2C
:1027C000FF1FE252FD4F908192959F706091FE0530
:1027D000099F600D11247E2D8B2D39830E94792055
:1027E000462F282F672FC6010E949E1F3981A39470
:1027F000D9CF81E0303308F488C086C080911601BB
:10280000C82ECC0CCC0CC80E05E00C0D013308F022
:1028100000E3E090FE057091FF05D09000068091E6
:102820000106682F6695669566958091F5059091ED
:10283000F60579830E946E200E94EC1F8058982F25
:1028400097FD9195990F292F3D2D239F212D11241F
:102850006E2D7981822F0E947920E62ED82EC01607
:10286000A0F4EC2DF0E0DF01A35CBC4F8C919091C3
:102870001701982341F02D2D4E2D672FCF0179831D
:102880000E949E1F7981C394EACF81E00033E8F172
:102890003BC08CE19CE102C080EF9BE10E945B2881
:1028A00034C085EF9CE11DC086ED9CE11AC08BEB26
:1028B0009CE11CC080EA9CE119C08EEE9BE1EECF4A
:1028C00085EE9BE1EBCF8CED9BE1E8CF81EC9BE1CA
:1028D000E5CF82EB9BE10AC08FE390E202C08FE874
:1028E0009CE10E94FF2711C08BE79CE10E94832797
:1028F0000CC084E89BE105C082E59BE102C084E155
:102900009BE10E94222701C080E0909116019F5F09
:1029100090931601811128C082E080930601809176
:102920001801811121C0772051F01EC0709208015A
:102930008091FD058370809307010E94451D83E00F
:102940008093060111C06091F5057091F6058091A4
:10295000F7059091F8050E94C1186A31710581054B
:10296000910510F010920601F11084C08091BA0315
:10297000811180C08091840383FD7CC06091BA0581
:102980007091BB058091BC059091BD050E943923D3
:10299000823009F067C082EAE82E85E0F82E612CCB
:1029A000712CF70164913196749131968491611183
:1029B00007C0711105C0811103C020E040E043C091
:1029C0000E947920C62E072FD82E90910006692FDD
:1029D00070E080E090E00E946F2F20E030E04FE751
:1029E00053E40E94CE2E4B015C016D2D70E080E01F
:1029F00090E00E94712F9B01AC01C501B4010E94BF
:102A0000FD2F0E94402FD62E6C2D70E080E090E0CC
:102A10000E94712F9B01AC01C501B4010E94FD2FE2
:102A20000E94402FC62E602F70E080E090E00E9450
:102A3000712F9B01AC01C501B4010E94FD2F0E94C2
:102A4000402F2D2D4C2DC3010E949E1FFFEF6F1AAA
:102A50007F0A23E0E20EF11C30E36316710409F0F3
:102A6000A0CF08C080911701811104C040E060E050
:102A70000E949C1F812F0F90DF91CF911F910F918A
:102A8000FF90EF90DF90CF90BF90AF909F908F908E
:102A90007F906F905F904F900895E8EDF0E0808117
:102AA0008E7F80831092E2001092DA001092E10093
:102AB000A0EEB0E08C9181608C9380818F778083D1
:102AC00019BCA7EDB0E08C918E7F8C9380818F7EB6
:102AD00080831092B903089508958091C8050895E0
:102AE000CF93DF9300D01F92CDB7DEB79C019091BA
:102AF0007D03911105C08091EB05843049F504C038
:102B0000923011F0943021F584E089833B832A834D
:102B100082E08093E9008FEF9091E800815095FD6D
:102B200006C095ED9A95F1F700008111F5CF8091DF
:102B3000E80085FF0DC040E050E063E070E0CE01AA
:102B400001960E94B0288091E8008E778093E8007B
:102B50000F900F900F90DF91CF910895CF93DF9357
:102B600000D01F92CDB7DEB72091EB05243031F5B0
:102B700023E02983805891099B838A8382E0809394
:102B8000E9008FEF9091E800815095FD06C095ED2A
:102B90009A95F1F700008111F5CF8091E80085FF4B
:102BA0000DC040E050E063E070E0CE0101960E946D
:102BB000B0288091E8008E778093E8000F900F9006
:102BC0000F90DF91CF910895CF93DF9320917D03F4
:102BD000211103C02091EB0502C0223011F02430F6
:102BE000E1F520911501222339F02091960327FF6A
:102BF00003C060E222E002C068E021E02093E90027
:102C00002FEF3091E800215035FD06C035ED3A95A3
:102C1000F1F700002111F5CF2091E80025FF1DC03C
:102C2000EC0180911501811105C040E050E068E0A1
:102C300070E003C070E040E050E0CE010E94B02898
:102C40008091E8008E778093E80080E2FE01A9EC95
:102C5000B5E001900D928A95E1F7DF91CF9108954B
:102C60001F920F920FB60F9211242F933F934F9301
:102C70005F936F937F938F939F93AF93BF93CF9304
:102C8000DF93EF93FF93C091E900CF708091EC0048
:102C9000D82FD17080FDD0E81092E9008091F0002B
:102CA000877F8093F00078940E94E7281092E900D3
:102CB0008091F00088608093F000CD2BCF70C0939E
:102CC000E900FF91EF91DF91CF91BF91AF919F917B
:102CD0008F917F916F915F914F913F912F910F90C5
:102CE0000FBE0F901F9018952091E4003091E500E1
:102CF00095E64091EC00842F817040FF22C08091C6
:102D0000E80080FD1CC08091EB05882391F08530A0
:102D100091F08091EB0085FD10C04091E40050914E
:102D2000E5004217530729F39A01915011F784E007
:102D3000089582E0089583E0089581E0089580E099
:102D400008954091E80042FFDECF08958091ED059F
:102D500087FF11C08091E80082FD05C08091EB05DE
:102D60008111F8CF11C08091E8008B770BC0809162
:102D7000EB05882349F08091E80080FFF8CF80912F
:102D8000E8008E778093E8000895982F973058F5E3
:102D90009093E900981739F07091EC002091ED00C4
:102DA0005091F00003C0242F762F50E021FF19C06E
:102DB0003091EB003E7F3093EB003091ED003D7F92
:102DC0003093ED003091EB0031603093EB00709365
:102DD000EC002093ED005093F0002091EE0027FFCF
:102DE00007C09F5FD3CF8F708093E90081E0089583
:102DF00080E00895CF92DF92EF92FF920F931F939E
:102E0000CF93DF93C8EDD0E088818F7E8883E7ED94
:102E1000F0E080818160808384E082BF81E08093E4
:102E2000B90388818E7F888302EE10E0F80110825A
:102E30001092DA0081EEC82ED12CF6011082888122
:102E40008F77888388818068888388818F7D888355
:102E500019BC1092EB051092EC051092EA05109245
:102E6000E90590EEE92EF12CF70180818B7F8083BC
:102E700088818160888342E060E080E00E94C5161E
:102E8000F60180818E7F8083F8018081816080835C
:102E9000808188608083F70180818E7F8083888134
:102EA00080618883DF91CF911F910F91FF90EF9008
:102EB000DF90CF9008951F920F920FB60F921124BA
:102EC0002F933F934F935F936F937F938F939F9332
:102ED000AF93BF93EF93FF938091E10082FF09C00E
:102EE0008091E20082FF05C08091E1008B7F80939A
:102EF000E1008091DA0080FF2AC08091D80080FF35
:102F000026C08091DA008E7F8093DA008091D9000C
:102F100080FF18C080E189BD82E189BD09B400FE4F
:102F2000FDCF81E08093EB058091B90381110FC043
:102F30000E944D150E94FA168091E20084608093F1
:102F4000E20005C019BC1092EB051092B903809104
:102F5000E10080FF17C08091E20080FF13C08091E4
:102F6000E2008E7F8093E2008091E2008061809396
:102F7000E2008091D80080628093D80019BC85E07F
:102F80008093EB058091E10084FF36C08091E200E0
:102F900084FF32C080E189BD82E189BD09B400FEB1
:102FA000FDCF8091D8008F7D8093D8008091E10083
:102FB0008F7E8093E1008091E2008F7E8093E2001B
:102FC0008091E20081608093E2008091EC0588238B
:102FD00011F084E007C08091E30087FD02C081E02A
:102FE00001C083E08093EB051092C6050E94F12B8F
:102FF0000E94831F1092BA038091E10083FF27C0D3
:103000008091E20083FF23C08091E100877F80935D
:10301000E10082E08093EB051092EC058091E100E5
:103020008E7F8093E1008091E2008E7F8093E200AA
:103030008091E20080618093E20042E060E080E005
:103040000E94C5168091F00088608093F000FF9187
:10305000EF91BF91AF919F918F917F916F915F9110
:103060004F913F912F910F900FBE0F901F90189589
:103070002091F3053091F4052617370748F06115C4
:10308000710539F42091E8002E772093E80001C003
:10309000B90140E061157105A9F12091EB052223EA
:1030A00009F443C0253009F442C02091E80023FD13
:1030B00040C02091E80022FD32C02091E80020FFAE
:1030C000E9CF4091F3002091F20030E0342BFC0175
:1030D000CF016115710559F02830310540F4819117
:1030E0008093F100615071092F5F3F4FF1CF41E0B4
:1030F0002830310509F040E02091E8002E77209338
:10310000E800C8CF4111C9CF0AC08091EB058823E0
:1031100061F0853061F08091E80083FD0AC0809104
:10312000E80082FFF2CF80E0089582E0089583E016
:10313000089581E0089578941F920F920FB60F9230
:1031400011248F939F93AF93BF93809179039091B4
:103150007A03A0917B03B0917C030196A11DB11D60
:103160008093790390937A03A0937B03B0937C03BD
:10317000BF91AF919F918F910F900FBE0F901F90B5
:103180001895CF92DF92EF92FF920F931F932FB774
:10319000F894C0907903D0907A03E0907B03F0908C
:1031A0007C032FBF97018601061B170B280B390BD9
:1031B000C616D706E806F90618F0C901B80106C018
:1031C000C901B80161507109810991091F910F91DD
:1031D000FF90EF90DF90CF900895CF93DF93CDB71E
:1031E000DEB72A970FB6F894DEBF0FBECDBF84B707
:1031F000877F84BF0FB6F894A8958091600088619E
:1032000080936000109260000FBE80E880936100A0
:103210001092610085B7806885BF85B7806885BFDB
:103220000E944D150E94FA168091E20084608093FE
:10323000E20078948091EB058823A1F01091E900D9
:103240001F709091EC00892F817090FD80E8182B01
:103250001092E9008091E80083FD0E94E7281F702A
:103260001093E90082E084BD93E095BD9AEF97BD8D
:1032700080936E000E94191190E090930A01809350
:1032800009010E9400120E940F12A8E8B3E0EBE9C6
:10329000F3E06EE0F62EFE0E11921D92FE12FCCFB0
:1032A0008EE090E00E94983080937E0390937F039D
:1032B000FC010E962BEF2193E817F907E1F70E9426
:1032C000BA22811102C00E94C5220E94B21D0E9432
:1032D000BA22811104C00E94C5220E94E01F45E06D
:1032E00050E06CE170E08DEF95E00E94762E8091C9
:1032F000FD058C7F11F40E94E01F8CE090E00E949D
:10330000862E90E0A0E0B0E080938003909381034C
:10331000A0938203B093830389EA8093800089E0BD
:103320008093810024982C983F988AB18F7C8AB929
:103330006E98479A8BB180638BB9769A8FE090E054
:103340000E948E2E6093840370938503809386037E
:103350009093870367708FEF869FB0011124759556
:1033600067957595679577277093890060938800B6
:1033700070938B0060938A0070938D0060938C0033
:103380009091840394FF03C08093170102C01092B0
:1033900017010E9490110E94BA22811102C00E945E
:1033A000C52282E090E00E94862E8093AA030E94AC
:1033B000A922909397038093960383E090E00E9464
:1033C000862E682F70E080E090E00E94E9240E9441
:1033D0008F1F0E948F1F0E94A01F8BE091E090938F
:1033E00099038093980399249A94CC24C394D12C64
:1033F000EE24E39490E1592E22E1422E38E1A32EEF
:10340000B12C40E4842E8091EB05853009F052C048
:1034100040E060E080E00E949C1FE092BA0380914F
:10342000EB05843041F110929A030FB6F894A895F9
:10343000A09260000FBE8092600040E060E080E0FB
:103440000E949C1FE092BA0383B7817F846083BF90
:1034500083B7816083BF7894889583B78E7F83BF5D
:103460000FB6F894A8958091600088618093600001
:10347000109260000FBE8091EA05882309F4C3CF43
:103480000E94191190E090930A01809309010E9413
:1034900000120E940F12EBE9F3E01192FE12FDCF31
:1034A0000E941612EBE9F3E08191811167C0FE12D0
:1034B000FBCFA9CF0E941612EBEAF3E0ABE9B3E031
:1034C00000E010E0702F6D9121912627B1F180E08E
:1034D00090E030E0782EA901082E02C0559547955E
:1034E0000A94E2F740FF25C089837A83C60102C0AF
:1034F000880F991F7A94E2F73C01862F90E086218D
:10350000972121E0892B09F420E02B830E941122CE
:103510008160782F9D838C8349815A816B818D8155
:103520000E94811EF801E555FC4F8081682660826B
:1035300019C001968630910569F60F5F1F4F0E3056
:10354000110509F0BFCF9E829F8218860E9411222A
:103550008160782F9A8789874E815F8168858A8507
:103560000E94811E1091A9030E94831F181709F45D
:103570004ACF0E94831F8093A90345CF59BC49BC01
:1035800009B400FEFDCF8091D8008F7D8093D800D4
:103590008091E00082608093E0008091E00081FDF6
:1035A000FCCF31CF8033910520F5880F991F880F0C
:1035B000991FFC01EF5DFE4F528133818081837042
:1035C0007181E0E98E9FC00111248B509C4FFC015A
:1035D000E70FF11DB4976083FC01E50FF11DB4976F
:1035E0004083830F911DFC01B497208381E0809379
:1035F000F4030895FF920F931F93CF93DF93182F37
:10360000062FF42EC0E0D0E02F2D402F612FCE01E9
:103610000E94D21A2196C033D105B1F7DF91CF9124
:103620001F910F91FF9008950F931F9310E0F801E1
:10363000EE0FFF1FE352FD4F9081905797FD91953C
:10364000000F111FF801E252FD4FE081F0E0B0974A
:10365000DF01AA0FBB1F8D010E0F1F1F2003D0011A
:10366000219FB00D1124E8E3F0E0E91BF10997FD7B
:10367000F3959F01220F331F89010E0F1F1F400377
:103680009001419F300D11242A0F3B1F37FF02C0CC
:1036900021583F4F220F232F221F330B620F1F9100
:1036A0000F9108950F931F93522F10E0F801EE0F22
:1036B000FF1FE252FD4FE081F0E0B097EE0FFF1FD9
:1036C0009F015203D001539FB00D1124000F111F11
:1036D000F801E352FD4F008110E000571109000F7F
:1036E000111F40039001419F300D11242A0F3B1FF1
:1036F00037FF02C021583F4F220F232F221F330BC9
:10370000620F1F910F9108950F931F93522F10E096
:10371000F801EE0FFF1FE252FD4FE081F0E0B0979D
:103720009F015203D001539FB00D1124000F111FB0
:10373000F801E352FD4F008110E0005711094003EA
:103740009001419F300D11242A0F3B1F37FF02C00B
:1037500021583F4F220F232F221F330B620F1F913F
:103760000F910895EF920F931F9393E0099F8001AB
:103770001124159507956E2D600F1F910F91EF90F5
:10378000089550E0FA01EE0FFF1FE252FD4F9081C5
:10379000905297FD9195440F551FFA01E352FD4F4A
:1037A000408150E0FA01E21BF1099F01290F311D10
:1037B00097FD3A95620F0895E42FF0E0EE0FFF1F9A
:1037C000E252FD4F6081621B0895E42FF0E0EE0F9E
:1037D000FF1FE352FD4F6081621B0895622F089521
:1037E000E42FF0E0EE0FFF1FE352FD4F408134EE77
:1037F000439F412D1124E82FF0E050E0445E5F4FDD
:10380000DA01A21BB1099D01B7FF03C031952195D3
:10381000310993E0220F331F9A95E1F7AF01421B64
:10382000530B9A0157FF02C020E030E0582F259F2C
:10383000212D1124822F0895E42FF0E0EE0FFF1FB9
:10384000E352FD4F408134EE439F412D1124E72F79
:10385000F0E050E0445E5F4FDA01A21BB1099D0128
:10386000B7FF03C031952195310993E0220F331F33
:103870009A95E1F7AF01421B530B9A0157FF02C023
:1038800020E030E0279F212D1124722F0895FC01A4
:10389000CB01309721F477FF2CC080E808959F0179
:1038A000F7FF04C0222733272E1B3F0BBC01621BEE
:1038B000730B280F391F97FD0DC0CB0145E0880F12
:1038C000991F4A95E1F7B9010E947E3080E2861B7C
:1038D000682F09C0C90125E0880F991F2A95E1F7D3
:1038E0000E947E30605A862FF7FF02C081950895AE
:1038F000089580E00895EF920F93CF93DF93D72F31
:10390000C82FC9010E19BA010E94471C602F681BFD
:103910007D2F8C2FDF91CF910F91EF9008950F9312
:10392000CF93DF93D72FC82FC901BA010E94471C3C
:10393000682F600F7D2F8C2FDF91CF910F9108950D
:10394000EF920F931F93CF93DF93D62FC72F182F8C
:10395000C9010E19010FBA010E94471C081B019FE3
:10396000012D11246D2F7C2F802FDF91CF911F917E
:103970000F91EF900895EF920F931F93CF93DF93E2
:10398000D62F172FC82FC9010E19070FBA010E9491
:10399000471C081B702F719F712D11246D2F8C2FC8
:1039A000DF91CF911F910F91EF900895FF920F93A8
:1039B0001F93CF93DF93F62ED72F182FC901C12F56
:1039C000C01BBA010E94471C982F880F980F2C2FFC
:1039D000291B219F212D11246F2D7D2F822FDF91F7
:1039E000CF911F910F91FF900895FF920F931F9316
:1039F000CF93DF93F62E172FD82FC901C72FC01BE7
:103A0000BA010E94471C982F880F980FC91B7C2F62
:103A1000719F712D11246F2D8D2FDF91CF911F91EB
:103A20000F91FF900895EF92FF921F93CF93DF9332
:103A30007B01182F110FC0E0D0E08C2F8C5D80939C
:103A4000E00320E030E0F901EC0FFD1FEE0DFF1D5B
:103A50008081F901E052FC4F81832F5F3F4F20317D
:103A6000310589F724E630E041E150E060EE73E093
:103A7000812F0E944B2E6096C039D105F1F6DF915F
:103A8000CF911F91FF90EF9008958091F4038823C8
:103A900051F065EF73E084E70E94131D65E874E060
:103AA00087E70E94131D1092F4030895E0EEF3E0FF
:103AB0006083418324E630E042E050E0BF01880F9C
:103AC0000C944B2ECF93DF93C82F4BE06DEF0E94E9
:103AD000561D40E06AE08C2F0E94561D8FE39CE942
:103AE0000197F1F700C0000040E060E08C2F0E94D9
:103AF000561D40E061E08C2F0E94561D40E066E0BC
:103B00008C2F0E94561D40E06DEF8C2F0E94561D99
:103B1000D0E040E06D2F8C2F0E94561DDF5FD23128
:103B2000C1F740E06D2F8C2F0E94561DDF5FD4320D
:103B3000C1F740E06D2F8C2F0E94561DDF5FD43BF4
:103B4000C1F74BE06DEF8C2F0E94561D41E06AE0FB
:103B50008C2F0E94561D40E06DEF8C2FDF91CF918E
:103B60000C94561D7F928F929F92AF92BF92CF92EC
:103B7000DF92EF92FF920F931F93CF93DF930E94F8
:103B8000992D84E70E94621D87E70E94621DE4E28E
:103B9000EE2EE1E0FE2EC12CD12CF2E17F2EA8E02A
:103BA0008A2E912CAA24A394B12CF701329760811C
:103BB00070E0CB0184973196E081F0E0B497D701B3
:103BC0002C9130E024523109D601AA0FBB1FAA0F55
:103BD000BB1FAF5DBE4FCC91C370D0E0AC0197FF6F
:103BE00002C0495F5F4F63E0559547956A95E1F7DD
:103BF0007C9E80017D9E100D1124040F111D055423
:103C00001C4FB4010E947E30A50102C0440F551F15
:103C10008A95E2F7CA01D8019C91892B8C93CF0138
:103C2000F7FD079653E0959587955A95E1F77C9EA9
:103C300080017D9E100D1124080F111D05541C4F8D
:103C4000CF01B4010E947E30F50102C0EE0FFF1FCC
:103C50008A95E2F7CF01D8019C91892B8C93C901F9
:103C600037FD079643E0959587954A95E1F77C9E49
:103C7000F0017D9EF00D1124E80FF11DE554FC4F7D
:103C8000C901B4010E947E30950102C0220F331F8A
:103C90008A95E2F7C9019081892B80833FEFC31A8F
:103CA000D30A44E0E40EF11C50E3C516D10409F038
:103CB0007CCF81E08093DF030BEB13E0C0E0D0E02A
:103CC000D8014D918D016C2F84E70E94561DFE0195
:103CD000E554FC4F42896C2F87E70E94561D2196C0
:103CE000C231D10569F7DF91CF911F910F91FF90FC
:103CF000EF90DF90CF90BF90AF909F908F907F908C
:103D00000895EF92FF920F931F93CF93DF93CDB758
:103D1000DEB767970FB6F894DEBF0FBECDBF4B8BF3
:103D20005C8B6D8B7E8B8F8B0E891F890115110526
:103D3000C1F15F3F11F44F3FA1F1E42EF12CA1E05E
:103D4000B0E0042E01C0AA0F0A94EAF7852F90E094
:103D5000662319F020914A0506C09C01255E3A4F62
:103D6000F90120812A232223A9F046E0489F9001EF
:103D7000499F300D1124F701E20FF31FEE0FFF1FD3
:103D8000EF51FE4F40815181FC01E55EFA4F908179
:103D9000A92B06C0FC01E55EFA4FA0958081A823FF
:103DA000A08386E0FE013D96DF01982F1D929A9533
:103DB000E9F74D875E876F87198B088BDE011796B1
:103DC00001900D928A95E1F7CE0107960E94582541
:103DD000811137C086E0FE013796DE011196019011
:103DE0000D928A95E1F7FF81E8856A857B856115EB
:103DF000710539F1EF3F11F4FF3F19F120915105A1
:103E000030E0C9010196877099274091820550E002
:103E10008417950779F1F983EA837D836C8396E0B3
:103E2000929FD001939FB00D1124AE5ABA4FFE015C
:103E3000319601900D929A95E1F7809351050E9479
:103E4000F32416E08091820590915105891711F1B4
:103E5000189FC00111248E5A9A4F0E94582588231A
:103E6000C9F08091820590E0019687709927809330
:103E70008205E8CF1092C6050E94F12B10925105E1
:103E800010928205EBE4F5E086E0DF011D928A9551
:103E9000E9F7D7CF67960FB6F894DEBF0FBECDBF58
:103EA000DF91CF911F910F91FF90EF900895209196
:103EB000190530911A058217930771F090931A052E
:103EC00080931905E0919803F0919903309721F0C0
:103ED0000084F185E02D0994089520911705309113
:103EE00018058217930771F09093180580931705B2
:103EF000E0919803F0919903309721F00680F781C3
:103F0000E02D09940895E0919803F091990330977A
:103F100021F00190F081E02D099480E008958091D6
:103F2000FD05837011F4109206018091FD058C7FD0
:103F300081608093FD0508950C94FA1A0C94D21AAE
:103F400045E050E06CE170E08DEF95E00C949A2E26
:103F5000EDEFF5E0880F880F90819370892B8083B7
:103F6000109206010C94A01F9091FD05892F869553
:103F70008695815C8F739370882321F0880F880F5A
:103F8000892B02C0892F80658093FD051092060160
:103F90000C94A01F9091FD05892F869586958F5FC3
:103FA0008F739370853120F4880F880F892B02C09E
:103FB000892F84608093FD05109206010C94A01F48
:103FC000EDEFF5E08DE2808311828FEF82838383B2
:103FD0008FE784830C94A01F482F982F46FD90955F
:103FE000E92FEF739F7046FD9F5FE295EF70EE0F34
:103FF000F0E0E75EFE4F2181299F802D212D1124C5
:1040000082958F702295207F822B3081982F930F7D
:10401000892F47FD819580580895BC018230910514
:1040200008F40895613E8EE1780748F49B0195E01D
:10403000369527959A95E1F748E0420F01C04FEF7A
:1040400091E0242F30E0290F311D35952795229FCF
:10405000F001239FF00DF00D11246E177F0718F467
:104060004FEF420F05C02F3F310539F091E0920F1D
:10407000491738F78FEF890F08958FEF08950F9341
:104080001F93CF93DF931F92CDB7DEB7182F47FD55
:104090004195E8E3F0E0CF01841B910947FD93953A
:1040A000889FF001899FF00DF00D1124229FC0011F
:1040B000239F900D900D11248E0F9F1F79830E94D6
:1040C0000D20982F880F980F692F600F7981812F0D
:1040D0000F90DF91CF911F910F91089520E030E074
:1040E000A901869F412D969F400D511D1124CA01A3
:1040F0000895CF92DF92EF92FF920F931F93CF9389
:10410000DF937B01282F382FE82FF0E0F11006C055
:10411000EE5CF94F6491762F862F7BC00F2D10E057
:1041200046E0649FC0011124CFEFD0E0BE010E94A1
:104130006A30AB016BEA6403C001659F900D1124E6
:104140008E0D911D8E0D911D982F990F890FBE0117
:10415000601B710B6E9FD0016F9FB00D7E9FB00DE5
:1041600011249B2F8F9DB0011124672F77277E018B
:10417000E61AF70AEE9EB001EF9E700DFE9E700DDE
:1041800011246E01C81AD108C09E7001C19EF00CA6
:10419000D09EF00C11240F2D1127C01BD10BCE9FE8
:1041A0008001CF9F100DDE9F100D1124812F423012
:1041B000510591F04CF441155105E1F041305105A4
:1041C000B9F4822F272F16C04430510569F044F00E
:1041D0004630510579F00CC0822F2B2F912F0AC049
:1041E0002B2F932F872F06C08B2F922F212F02C0AA
:1041F0008B2F972FE22FF0E0EE5CF94F7491E82FB0
:10420000F0E0EE5CF94F6491E92FF0E0EE5CF94FDD
:104210008491DF91CF911F910F91FF90EF90DF90EC
:10422000CF900895609180038CE090E00C94AA2ECA
:104230009091960392FF0DC0282F2871283019F411
:10424000877F846006C0282F2471243011F48B7F6F
:10425000886093FF0DC0282F2871283119F4877EBC
:10426000846106C0282F2471243111F48B7E88616B
:104270002091970320FF0DC0382F3871383019F482
:10428000877F816006C0382F3171313011F48E7F05
:10429000886021FF0DC0282F2871283119F4877EEE
:1042A000816106C0282F2171213111F48E7E886131
:1042B00094FD877E08956F927F928F929F92AF9226
:1042C000BF92CF92DF92EF92FF920F931F93CF9303
:1042D000DF931F92CDB7DEB7742E622EFC01828170
:1042E000882331F160936F0369830E9411229093B8
:1042F000160580931505698180E2860F883008F0E5
:1043000080C0677081E001C0880F6A95EAF70F905E
:10431000DF91CF911F910F91FF90EF90DF90CF90A1
:10432000BF90AF909F908F907F906F900C940F2CC8
:1043300090916F0396134AC0409115055091160550
:104340008FB7F8940091790310917A0320917B0341
:1043500030917C038FBF48015901AA24BB246A0114
:10436000E12CF12C041B150B8C149D04AE04BF042E
:1043700010F401501109083C110540F510E2170D29
:104380009715B9F080E2890F883040F4977081E08A
:1043900001C0880F9A95EAF70E94042C183048F45F
:1043A00081E0972D977001C0880F9A95EAF70E94D7
:1043B0000F2C862D0E94862D183018F5972D97709A
:1043C00081E001C0880F9A95EAF70AC080E2860F63
:1043D0008830B8F4677081E001C0880F6A95EAF709
:1043E0000F90DF91CF911F910F91FF90EF90DF9091
:1043F000CF90BF90AF909F908F907F906F900C94D4
:10440000042C0F90DF91CF911F910F91FF90EF90AF
:10441000DF90CF90BF90AF909F908F907F906F90E4
:1044200008952FB7F8948091790390917A03A09121
:104430007B03B0917C032FBF08951F920F920FB69C
:104440000F9211248F939F93AF93BF9380919A0300
:10445000811113C08091790390917A03A0917B031D
:10446000B0917C034196A11DB11D80937903909377
:104470007A03A0937B03B0937C03BF91AF919F918C
:104480008F910F900FBE0F901F90189520911501DE
:10449000222321F02091960327FD04C0FC013296CF
:1044A000089619C0262F2695269526952E31C0F4FC
:1044B000FC01E20FF11D677081E090E001C0880F00
:1044C0006A95EAF7809592818923828308953196CF
:1044D000E817F90729F020812613F9CF1082F7CFCA
:1044E000089520911501222321F02091960327FDA4
:1044F00005C0FC0132962FEF30E019C0262F26951B
:10450000269526952E3120F5FC01E20FF11D6770EE
:1045100081E090E001C0880F6A95EAF79281892BCB
:10452000828308952F3F39F03F5F363041F041914B
:104530004613F8CF0DC04111F7CF232FF5CF2F3FF2
:1045400039F0FC01E20FF11D27FDFA956283089511
:104550000895CF9384E090E00E94862EC82F81E2D8
:1045600090E00E94862E2C2F30E0A901582BCA0122
:10457000CF91089580E090E00E94942E21E08F3E3C
:104580009E4F09F020E0822F08956FEE7EEF80E0CD
:1045900090E00E94C82E60E082E090E00E94AA2E87
:1045A00060E083E090E00E94AA2E1092C205109273
:1045B000C3051092C4051092C50560E084E090E048
:1045C0000E94AA2E60E081E290E00E94AA2E60E0A4
:1045D00085E090E00E94AA2E60E086E090E00E94D4
:1045E000AA2E6FEF87E090E00E94AA2E40E050E0F4
:1045F000BA0188E090E00E94BC2E60E08DE090E07F
:104600000E94AA2E40E050E0BA0188E190E00E94AA
:10461000BC2E60E087E190E00E94AA2E40E050E0CE
:10462000BA018CE190E00E94BC2E60E080E290E054
:104630000E94AA2E10928403109285031092860382
:104640001092870384E08061809384034091840307
:104650005091850360918603709187038FE090E00D
:104660000E94BC2E40E050E0BA0183E190E00C943F
:10467000BC2ECF92DF92EF92FF926C01EE24FF24CA
:10468000C114D104E104F10421F0C701B60120E115
:1046900001C020E0C72ED82EE92EFF24C114D1047A
:1046A000E104F10419F0285FC701B6016B017C0138
:1046B00054E0F694E794D794C7945A95D1F7C1146F
:1046C000D104E104F10419F02C5FC701B6016B01BC
:1046D0007C0142E0F694E794D794C7944A95D1F7C9
:1046E000C114D104E104F10419F02E5FC701B60131
:1046F000DC01CB01B695A79597958795892B8A2BD9
:104700008B2B09F02F5F822FFF90EF90DF90CF90DF
:1047100008958091C10581111092C105089590916D
:10472000C0058091C605892B2091BF05982F922B3B
:10473000909329058091C1058823D9F0892B809316
:10474000290580911501882331F08091960387FF18
:1047500002C08EE101C086E0EBE2F5E090E081501E
:1047600028F021912223D9F39F5FF9CF91110E9464
:104770008923E0919803F09199033097A9F08091F3
:104780001501882359F08091960387FF07C0809117
:10479000290580932A0585E0809329050280F3810D
:1047A000E02D89E295E009940895BF92CF92DF92BF
:1047B000EF92FF920F931F93CF93DF938C01C090E2
:1047C000C205D090C305E090C405F090C505809166
:1047D000BA059091BB05A091BC05B091BD05C82A52
:1047E000D92AEA2AFB2ACFE1D0E0D701C6010C2E54
:1047F00004C0B695A795979587950A94D2F780FF40
:1048000007C0BC2EB8018C2F0E946E0E019719F4C0
:10481000219758F7B12C8B2DDF91CF911F910F91DC
:10482000FF90EF90DF90CF90BF900895CF93DF93EC
:10483000EC010E94D523BE010E946E0EDF91CF9144
:104840000895292F220F920F990F890F682F6695CF
:1048500066956695982F977085E0689FB001112442
:1048600040E050E080E0FA01E60FF71FED57FA4F05
:10487000208130E0092E02C0369527950A94E2F790
:1048800021703327042E01C0220F0A94EAF7822BED
:104890004F5F5F4F4530510531F70895292F220FA3
:1048A000920F990F890FA82FA695A695A6958770A8
:1048B00051E001C0550F8A95EAF785E0A89FD00125
:1048C000112420E030E070E0F901EA0FFB1FED5702
:1048D000FA4F4081CB01022E02C0969587950A942B
:1048E000E2F7817099278195842785238427808327
:1048F0002F5F3F4F2530310539F708950E94E710AB
:104900006093BA057093BB058093BC059093BD0579
:104910000C94E32B0F931F9341E050E060E070E0B4
:1049200004C0440F551F661F771F8A95D2F7409524
:104930005095609570958091BA059091BB05A091B6
:10494000BC05B091BD058A019B01082319232A23C8
:104950003B23C901B8011F910F910C947E24209133
:10496000BE05809582238093BE05982F977079F4B9
:1049700030E0482F082E000C550B2417350739F06E
:104980008595859585950E948A241092BE05089587
:104990000F931F9341E050E060E070E004C0440FCB
:1049A000551F661F771F8A95D2F78091BA0590919F
:1049B000BB05A091BC05B091BD058A019B01082BE8
:1049C000192B2A2B3B2BC901B8011F910F910C9475
:1049D0007E246093C2057093C3058093C4059093B1
:1049E000C5050C94E32B80918205909151058917A0
:1049F00019F08F5F8770FBCF0895809150058295E5
:104A00008F7009F054C080914D05882309F44FC080
:104A100080918205A091510560914B0570914C05E4
:104A200040914E0550914F05B6E08A1709F43FC0FA
:104A300090E041155105C1F17F3F11F46F3FA1F1A5
:104A4000B89FF001B99FF00D1124EE5AFA4F218161
:104A500072132AC02081621327C02281211124C031
:104A6000238134812417350710F421503109241B88
:104A7000350B283C3105C0F4209150052F70206182
:104A80002093500526E0289FF001299FF00D112466
:104A9000E95AFA4F80818F70806180838BE495E0C2
:104AA0000E9454040C94F32401968770BECF08959D
:104AB000BF92CF92DF92EF92FF920F931F93CF930B
:104AC000DF93CDB7DEB761970FB6F894DEBF0FBEA8
:104AD000CDBF8C0185E0F801DE011D9601900D929D
:104AE0008A95E1F7D8013C9111962C911197129675
:104AF000EC9012971396CD90DC90149750914B0543
:104B000060914C0580914E0590914F05009709F4F6
:104B10004FC16F3F19F45F3F09F44AC1B0904D0592
:104B2000BB2009F4ECC040915005C816D90628F006
:104B3000F601E81BF90BCF0104C0809590958C0D10
:104B40009D1DFF24F394883C910548F0F12C407F93
:104B500009F09FC08BE495E00E94540421C1842F8A
:104B6000807F09F044C0621312C0531310C0E110DB
:104B70000EC04F704061409350058BE495E00E9459
:104B8000540480915005D80115968C932EC0CD28E1
:104B900019F12F3F11F43F3FF9F0FE2CE1101CC03A
:104BA000809182054091510556E0841709F458C060
:104BB00090E0589FF001599FF00D1124EE5AFA4FE2
:104BC0006181261306C06081361303C062816111C2
:104BD00003C001968770E9CFFE2CEE2009F421C1B5
:104BE00080915005816080935005F12C1AC16213A9
:104BF0000AC0531308C0E11006C080915005D801C7
:104C000015968C93B0C03D872E878D859E850E941A
:104C1000BC2B8823D1F1EE20C1F120915005822FC9
:104C200082958F7090E0029774F080914B0590917F
:104C30004C0598878F831986DB86CA862C87CE0120
:104C400007960E94540486E0F801ABE4B5E00190B9
:104C50000D928A95E1F70E94FD24FF24F394E1C0B0
:104C60003D872E878D859E850E941624292F2295AB
:104C70002F7030E0223031050CF0C7C09F7009F072
:104C8000C1C0805E883008F4CCC0C8010E945404C2
:104C9000E4CF621314C0531312C0E11010C080910E
:104CA0005005F8018583C8010E94540486E0EBE4B6
:104CB000F5E0DF011D928A95E9F7FB2CB2C03D8734
:104CC0002E878D859E850E94BC2B8823F1F2EE20D5
:104CD000E1F220915005822F82958F7090E002972B
:104CE0000CF4B1CF80914B0590914C059A83898348
:104CF0001B82DD82CC822E83CE010196A2CFC81604
:104D0000D90638F0C81AD90AB8ECCB16D10450F03D
:104D100007C0809590958C0D9D1D883C910510F0E5
:104D2000F12C3EC0FE2CEE2009F4AFCF621327C059
:104D3000531325C02091500520FD18C0822F829565
:104D40008F70482F50E04115510581F0F8012583FF
:104D50004F30510541F08F5F982F9295907F822FB1
:104D60008F70892B8583C8010E94540486E0F80166
:104D7000ABE4B5E001900D928A95E1F752C03D8712
:104D80002E878D859E850E94BC2B81115CCF8091E2
:104D90005005816080935005C8010E94540441C0B1
:104DA000EBE4F5E086E0DF011D928A95E9F739C072
:104DB000EE2009F46ACF3D872E878D859E850E945F
:104DC000BC2BF82E882309F460CF86E0F801ABE411
:104DD000B5E001900D928A95E1F780914B05909195
:104DE0004C050E94162492959F70963041F4809154
:104DF0004A0591E0892780934A05909349050E94CE
:104E0000FD240FC081113DCF0CC0243031050CF0C2
:104E10003CCF9F7009F435CFF8019581907F09F060
:104E200030CF8F2D61960FB6F894DEBF0FBECDBF89
:104E3000DF91CF911F910F91FF90EF90DF90CF9076
:104E4000BF9008959F92AF92BF92CF92DF92EF9260
:104E5000FF920F931F93CF93DF936C018091160104
:104E6000C82FCC0FCC0FC80FD5E0DC0FD13308F022
:104E7000D0E360910106669566958091F505909165
:104E8000F6050E946E20182F80E4810F0E94EC1F0F
:104E900090E8F92EF80E812F0E94EC1F20E8922E48
:104EA000980ECD1700F5AC2EB12CF501E35CFC4F4C
:104EB0008081909117019823A1F06091FE05709177
:104EC000FF0580910006E12E0C2F292D4F2DF601B4
:104ED00009950E947920462F282F672FC5010E942F
:104EE0009E1FCF5FDECF81E0D03308F080E0DF91FE
:104EF000CF911F910F91FF90EF90DF90CF90BF90D7
:104F0000AF909F9008956F927F928F929F92AF92F1
:104F1000BF92CF92DF92EF920F931F93CF93DF93C5
:104F20004C0180911601C82FCC0FCC0FC80FD5E0D3
:104F3000DC0FD13308F0D0E36091010666958091D3
:104F4000F5059091F6050E946E20182FCD1708F0F8
:104F500044C06C2E712CF301E35CFC4F9081809176
:104F600017018923C1F1F301EE0FFF1FE352FD4F3B
:104F7000C080D12C80E7C81AD108F301EE0FFF1FC3
:104F8000E252FD4FA080B12CE0E2AE1AB108CC9CF9
:104F90009001CD9C300D300D1124AA9CC001AB9C1A
:104FA000900D900D1124820F931F0E940D20082F49
:104FB0006091FE057091FF0580910006E12E95013C
:104FC000A601F40109950E947920462F282F672F0A
:104FD000C3010E949E1FCF5FB9CF81E0D03308F09C
:104FE00080E0DF91CF911F910F91EF90DF90CF90F4
:104FF000BF90AF909F908F907F906F900895CF92C9
:10500000DF92EF92FF920F931F93CF93DF937C0178
:1050100080911601C82FCC0FCC0FC80FD5E0DC0F44
:10502000D13308F0D0E36091010666958091F505D3
:105030009091F6050E946E20182FCD1778F5CC2E92
:10504000D12CF601E35CFC4F9081809117018923FC
:1050500019F1F601EE0FFF1FE252FD4F208130E003
:1050600020523109F601EE0FFF1FE352FD4F408140
:1050700050E0405751096091FE057091FF05809105
:105080000006012FF70109950E947920462F282F4D
:10509000672FC6010E949E1FCF5FCFCF81E0D03324
:1050A00008F080E0DF91CF911F910F91FF90EF907A
:1050B000DF90CF900895DF92EF92FF920F931F93AE
:1050C000CF93DF937C0190911601C92FCC0FCC0FA9
:1050D000C90FD5E0DC0FD13308F0D0E360910106B1
:1050E000669566958091F5059091F6050E946E2073
:1050F000D82ECD17F0F40C2F10E0F801E35CFC4F34
:10510000808190911701982391F06091FE05709134
:10511000FF05809100062D2D4C2FF70109950E9467
:105120007920462F282F672FC8010E949E1FCF5F2E
:10513000E0CF81E0D03308F080E0DF91CF911F9184
:105140000F91FF90EF90DF900895CF93DF93EC01E4
:1051500080EEFE01099581EEFE01DF91CF91099469
:10516000CF92DF92FF920F931F93CF93DF931F9203
:10517000CDB7DEB7F82E8B0199830E947416998102
:1051800081111CC0CF2CD92E01151105B1F08091D1
:10519000E80085FD0AC08091E8008E778093E800E2
:1051A0000E947416882381F309C0F60181916F0172
:1051B0008093F10001501109E7CF80E00F90DF915B
:1051C000CF911F910F91FF90DF90CF9008951F9383
:1051D000CF93DF93CDB7DEB7AA970FB6F894DEBFB3
:1051E0000FBECDBFEDEEF5E088E08E0F9091F1009F
:1051F00091938E13FBCF8091EE05833009F460C04C
:1052000030F4813071F0823009F49CC0B3C08A3030
:1052100009F488C08B3009F46BC0893009F0AAC04A
:1052200020C08091ED05813A09F0A4C08091E8008A
:10523000877F8093E8008091F1059091F205892B9A
:1052400021F460E289EC95E003C060E080E090E04A
:1052500070E00E9438188091E8008B778093E80016
:1052600089C08091ED05813209F084C08091F105FB
:105270009091F205029708F07DC08091E800877F49
:105280008093E8008091E80082FD05C08091EB05E5
:105290008111F8CF6FC02091F3008091F20090E06F
:1052A000922B029729F48091F1008B7F813021F4B9
:1052B0008091F1008093C8058091E8008B7756C0FB
:1052C0008091ED05813A09F055C08091F1059091EA
:1052D000F205892B09F04EC08091E800877F80930A
:1052E000E8008091E80080FFFCCF8091150139C073
:1052F0008091ED058132F1F58091F1059091F205F3
:10530000892BC1F58091E800877F8093E8000E9497
:10531000A6168091EF05809315011092C6050E9494
:10532000F12B28C08091ED05813221F58091E800B4
:10533000877F8093E8000E94A6168091F0058093F5
:10534000C70518C08091ED05813AA1F48091E8006D
:10535000877F8093E8008091E80080FFFCCF8091F8
:10536000C7058093F1008091E8008E778093E80074
:105370000E94A6168091E80083FFD6C18091ED05BA
:105380009091EE05492F50E04A30510508F0CCC10C
:10539000FA01EB57FF4F0C949230803821F082389D
:1053A00009F0C2C108C08091E9059091EA059923EE
:1053B00089F082600FC08091F1058F70873008F00E
:1053C000B3C18093E9008091EB0085FB882780F9C9
:1053D0001092E9009091E800977F9093E800809305
:1053E000F1001092F10074C1282F2D7F09F09CC1AB
:1053F000882319F0823061F097C18091EF058130E8
:1054000009F092C1933009F080E08093EA052EC044
:105410008091EF0581112AC08091F1058F702FEFE7
:10542000280F263008F080C18093E9002091EB001E
:1054300020FF1CC0933021F48091EB00806214C0E7
:105440009091EB0090619093EB0021E030E0A90196
:1054500002C0440F551F8A95E2F74093EA0010926C
:10546000EA008091EB0088608093EB001092E900E5
:105470008091E800877F2FC1811156C11091EF05FF
:105480001F778091E3008078812B8093E3008091E7
:10549000E800877F8093E8000E94A6168091E800CC
:1054A00080FFFCCF8091E30080688093E3001111BE
:1054B00002C082E001C083E08093EB0535C18058D3
:1054C000823008F031C18091EF059091F0058C3D5C
:1054D00053E0950779F583E08A838AE289834FB7A1
:1054E000F894DE01139620E03EE051E2E32FF0E075
:1054F00050935700E49120FF03C0E295EF703F5FA7
:10550000EF708E2F90E0EA3010F0C79601C0C09681
:105510008D939D932F5F243149F74FBF8091E80011
:10552000877F8093E8006AE270E0CE0101960E94D6
:105530003818BDC04091F1055091F205292F33274D
:1055400023303105B9F06CF42130310509F4FBC08A
:105550002230310509F0E8C08BE390E0E3EEF7E09C
:1055600054C02132310509F433C02232310509F427
:105570003CC0DAC0992781309105D1F05CF4892BC9
:1055800009F0D2C0E6E6F8E0E4918E2F90E0E6E67E
:10559000F8E038C08230910599F0039709F0C4C053
:1055A000E0E3F8E0E4918E2F90E0E0E3F8E02AC039
:1055B000EEE4F8E0E4918E2F90E0EEE4F8E022C013
:1055C000E6E3F8E0E4918E2F90E0E6E3F8E01AC01D
:1055D0004115510509F4BCC04130510509F0A4C082
:1055E00089E090E0EEE0F8E010C04115510509F4C3
:1055F000B4C04130510509F097C081E790E0E2E383
:10560000F7E003C0009709F48FC02091E800277FDE
:105610002093E8002091F3053091F405281739070D
:1056200008F4C90140E0009789F12091EB0522239D
:1056300009F43DC02530D9F12091E80023FD37C0A1
:105640002091E80022FD2FC02091E80020FFEBCF41
:105650004091F3002091F20030E0342B009759F094
:105660002830310540F444914093F1003196019780
:105670002F5F3F4FF3CF41E02830310509F040E084
:105680002091E8002E772093E800CDCF4111CDCFB7
:105690000AC08091EB05882351F0853041F080915C
:1056A000E80083FD04C08091E80082FFF2CF809182
:1056B000E8008B778093E80037C08038A9F58091A7
:1056C000E800877F8093E8008091EC058093F100EB
:1056D0008091E8008E778093E8000E94A61624C08F
:1056E000811122C01091EF051230F0F48091E80092
:1056F000877F8093E8001093EC050E94A616111195
:1057000006C08091E30087FD02C081E001C084E013
:105710008093EB0542E061EC81E00E94C51642E215
:1057200061EC82E00E94C5168091E80083FF1AC0F8
:105730008091E800877F8093E8008091EB00806291
:105740008093EB000FC082E190E0EEE1F8E05DCFE6
:1057500089E090E0E5EFF7E058CF80E490E0E3EAFD
:10576000F7E053CFAA960FB6F894DEBF0FBECDBFB9
:10577000DF91CF911F9108950E941624292F2F7039
:1057800092959F70E92FF0E03297EE30F105B8F472
:10579000E157FF4F0C949230803F99F018F4883E07
:1057A00070F40FC0843F59F40CC0883E50F0813F24
:1057B00031F407C0822F869586958695089580E0FE
:1057C000089581E008951092C0051092BF050E94CF
:1057D0008F2380E090E00E946D1F80E090E00C94A9
:1057E000571F80911501882331F08091960387FF20
:1057F00002C08EE101C086E0EBE2F5E0DF011D9220
:105800008A95E9F70C94E32B882341F080959091D9
:10581000C60589238093C6050C948F230895882399
:1058200039F09091C605892B8093C6050C948F237F
:105830000895882309F458C0682F823869F40E94BB
:10584000831F81FF51C069E389E295E00E947122C4
:105850000E948F2369E30EC0833891F40E94831F56
:1058600080FF42C063E589E295E00E9471220E94B8
:105870008F2363E589E295E00E9446220C948F23F2
:10588000843869F40E94831F82FF2EC067E489E296
:1058900095E00E9471220E948F2367E4EBCF8CEF8A
:1058A000860F813A38F380E2860F883070F4677093
:1058B00081E090E001C0880F6A95EAF780959091A9
:1058C000C60589238093C605D9CF8BE5860F833023
:1058D00020F480E090E00C946D1F685A673120F44A
:1058E00080E090E00C94571F0895882309F40DC1BF
:1058F000682F8238B1F40E94831F81FD06C169E3DD
:1059000089E295E00E9471220E948F232FEF81EEA1
:1059100094E0215080409040E1F700C0000069E32E
:1059200017C08338D9F40E94831F80FDEEC063E561
:1059300089E295E00E9471220E948F232FEF81EE71
:1059400094E0215080409040E1F700C0000063E502
:1059500089E295E00E9446220C948F238438B1F4AA
:105960000E94831F82FDD1C067E489E295E00E9416
:1059700071220E948F232FEF81EE94E0215080400E
:105980009040E1F700C0000067E4E2CF8CEF860FA3
:10599000813A28F489E295E00E947122DDCF80E20D
:1059A000860F883068F4677081E090E001C0880F4E
:1059B0006A95EAF79091C605892B8093C605CCCFEE
:1059C0008BE5860F833070F4653A29F0663A31F042
:1059D00083E890E005C081E890E002C082E890E0B2
:1059E0000C946D1F88E5860F873108F08EC0683AE9
:1059F00009F445C0693A09F445C06A3A09F445C05A
:105A00006B3A09F445C06C3A09F445C06B3B09F4A4
:105A100045C06C3B09F445C06D3A09F445C0603B94
:105A200009F445C06E3A09F445C06F3A09F445C01F
:105A3000613B09F445C0623B09F445C0633B09F48E
:105A400045C0643B09F445C0653B09F445C0663B6D
:105A500009F445C0673B09F445C0683B09F445C0FB
:105A6000693B09F445C06D3B09F445C06E3B09F440
:105A700045C06A3B09F445C080E090E044C082EE36
:105A800090E041C089EE90E03EC08AEE90E03BC0DD
:105A900085EB90E038C086EB90E035C083EB90E07A
:105AA00032C084EB90E02FC087EB90E02CC08CECF0
:105AB00090E029C08DEC90E026C083E891E023C0FF
:105AC0008AE891E020C082E991E01DC084E991E07C
:105AD0001AC081E292E017C083E292E014C084E22F
