:100000000C9447040C9464040C9464040C946404ED
:100010000C9464040C9464040C9464040C946404C0
:100020000C9464040C9464040C947F160C94541582
:100030000C9424210C9464040C9464040C946404C3
:100040000C9464040C9464040C9464040C94640490
:100050000C9464040C94BF170C9464040C94640412
:100060000C9464040C9464040C9464040C94640470
:100070000C9464040C9464040C9464040C94640460
:100080000C9464040C9464040C9464040C94640450
:100090000C9464040C9464040C9464040C94640440
:1000A0000C9464040C9464040C946404AF07B107CA
:1000B000BC07B307B507B707B907BB07BE07C0073B
:1000C000C207CD07C407C607C807CA07CC07CF07B2
:1000D00083098309C109C1090A0A150CBC0B150C57
:1000E0002A0A160B280B280B630D660D690D6C0D83
:1000F0006F0D720D750D3D1042104C1040104510E3
:100100004A1048109B12B512E11222136D1370139E
:10011000751378137B137E138113841387138A134B
:100120008D139013931398139D13A013A313BE283C
:10013000E528852AE528852A2D295029852A4E2A51
:10014000612ABD2ABD2AD02AD02AC62AD02AD02A7E
:10015000D02ABD2ABD2ACB2AD02AD02ACB2A2E00CB
:100160004C002A00E100354300001E00140004008A
:100170001D6134004D001F001A0016001B00010015
:100180002A00200008000700060050002C00210073
:100190001500090019004F004A00220017000A004C
:1001A000050000003E01AA000353000002530000B6
:1001B0000100A9000354000004540000E2002300E1
:1001C0001C000B00110000002961240018000D0024
:1001D000100052004B0025000C000E0036005100AC
:1001E0002800260012000F0037002F002B002700E8
:1001F00013003342387130004E002D003100346856
:10020000E5000151000001000100010001000100B2
:1002100000003A000100010001000100FD5C3B000C
:100220000100010001000100CA5C3C000100010066
:1002300001000100C25C3D0001000100010001005D
:10024000FC5C3E0001000100010000000100010013
:100250000100000001000000FB5C01000100000043
:1002600001000000C65C3F00010001000100000029
:10027000C55C40000100010001000100CA5C4100B2
:100280000100010001000100C35C42000100010007
:1002900001000100C95C43004600010001000100AB
:1002A000C95C44004500010001000100000000613C
:1002B000E1003C003D00240000001E00140004008A
:1002C0001D00250045001F001A0016001B00260017
:1002D0003F00200008000700060027003E00210024
:1002E000150009001900E2004400220017000A006E
:1002F0000500000042002300400000000100000053
:1003000043000100010000000100000001000100A5
:100310001C000B00110000000100010018000D007E
:1003200010000100010001000C000E003600010069
:100330002800010012000F003700010000620100D8
:1003400013000100380001000100010001002C0031
:100350002B00290000000100010001000100010044
:1003600000001E040100040401000100FB5C1F04E6
:100370001A04160401000100010020040804070407
:10038000010050042C0421041504090419044F042D
:10039000FC5C22040100010001000000C35C0100BC
:1003A0000100000001000000FE5C010001000000EF
:1003B00001000000C25C230401000B0401000000E6
:1003C000F95C240401000D0401005204C65C2504FC
:1003D00001000E04010051042804260401000F044A
:1003E00001000100010027040100330401000100A5
:1003F000C55C0100010001000100010000000100D6
:10040000010001000100010000001E0614060100A9
:100410000100010001001F060100010001000100B0
:100420000100200608060100060650062C062106DB
:100430001506010001004F0601002206010001001F
:1004400001000000010001000100000001000000A7
:10045000010001000100000001000000010023066E
:1004600001000100010000000100240601000D064A
:10047000010052060100250601000E06010051068A
:100480000100260601000F060100010001002706F9
:10049000010033060100010001000100010001001C
:1004A000010001000000000000000000000000004A
:1004B000000000000000000000000000000000003C
:1004C000000000000000000000000000000000002C
:1004D000000000000000000000000000000000001C
:1004E000000000000000000000000000000000000C
:1004F00000000000000000000000000000000000FC
:1005000000000000000000000000000000000000EB
:1005100000000000000000000000000000000000DB
:1005200000000000000000000000000000000000CB
:1005300000000000000000000000000000000000BB
:1005400000000000000000000000000000000000AB
:10055000000000000000000000000000000000009B
:10056000000000000000000000000000000000008B
:10057000000000000000000000000000000000007B
:10058000000000000000000000000000000000006B
:10059000000000000000000000000000000000005B
:1005A000000000000000000000000000000000004B
:1005B000000000000000000000000000000000003B
:1005C000000000000000000000000000000000002B
:1005D000000000000000000000000000000000001B
:1005E000000000000000000000000000000000000B
:1005F00000000000000000000000000000000000FB
:1006000000000000000000000000000000000000EA
:100610000000000069FFFF69FFFF69FFFF000000A5
:1006200000000069FFFF69FFFF69FFFF0EFFFF0E7B
:10063000FFFF0EFFFF0EFFFF0EFFFF000000000098
:1006400000000000000000000000000000000000AA
:10065000000000000000000000000000000000009A
:100660000101010101010101010202020202020273
:100670000203030303030303040404040405050540
:1006800005050606060606070707070808080809FD
:1006900009090A0A0A0B0B0B0C0C0C0D0D0D0E0EA2
:1006A0000E0F0F1010101111121213131414151530
:1006B00016161717181819191A1A1B1C1C1D1D1E9F
:1006C0001F1F2021212223232425252627282829EE
:1006D0002A2B2C2C2D2E2F30313132333435363716
:1006E00038393A3B3C3D3E3F404142434445464712
:1006F00048494B4C4D4E4F50525354555758595AE8
:100700005C5D5E606163646567686A6B6C6E6F7187
:1007100072747677797A7C7D7F8182848687898BF3
:100720008D8E9092949597999B9D9FA1A2A4A6A827
:10073000AAACAEB0B2B4B6B9BBBDBFC1C3C5C8CA1E
:10074000CCCED0D3D5D7DADCDEE1E3E6E8EAEDEFD4
:10075000F2F4F7F9FCFF05010980A10185031601F8
:10076000002603001A81002A83007510950181007C
:10077000C0050C0901A1018504160100269C021A7E
:1007800001002A9C02751095018100C0050109062F
:10079000A1018505050719E029E715002501950840
:1007A0007501810205081901290595057501910258
:1007B0009501750391010507190029EF1500250121
:1007C00095F075018102C005010906A1010507190F
:1007D000E029E7150025019508750181029501754D
:1007E00008810105081901290595057501910295F2
:1007F00001750391010507190029FF150026FF0067
:10080000950675088100C009023B00020100A0FAAC
:100810000904000001030101000921110100012266
:1008200040000705810308000A09040100010300D4
:100830000000092111010001227100070582032037
:10084000000A1201100100000008EDFE071301006C
:10085000010203010403300000001603450072008A
:1008600067006F0044006F007800200045005A00C8
:10087000000016034500720067006F0044006F001F
:100880007800200045005A000000040309041124E8
:100890001FBECFEFDAE0DEBFCDBF13E0A0E0B1E0D6
:1008A000E0E7F1E602C005900D92AE36B107D9F748
:1008B00026E0AEE6B3E001C01D92A630B207E1F734
:1008C0000E9411180C94B6300C9400008F929F92E5
:1008D000AF92BF92CF92DF92EF92FF920F931F934E
:1008E000CF93DF93CDB7DEB728970FB6F894DEBF6E
:1008F0000FBECDBFFC01F080118183819481892BD3
:1009000011F40C94F30C1F3F29F40FEFF01611F4BF
:100910000C94F30C6F0185E0DE01119601900D92AD
:100920008A95E1F7F601228189819A81222349F093
:100930000E94C622082F682F89819A810E943F2336
:1009400003C00E941223082F26E0129FF0011124F9
:1009500034E5039FE00DF11D1124EF0DF11DEE0FA5
:10096000FF1FE25AFE4F05911491F6018281073F65
:10097000FCE51F0759F0083F2CE5120709F446C0B3
:10098000023C3CE5130709F09BC062C0882309F4D0
:10099000F6C09091840381E0890F8770987F85303D
:1009A00020F4892B8093840302C090938403809168
:1009B00084038770EFEF8E9FC00111249595879572
:1009C00095958795992790938900809388009093B7
:1009D0008B0080938A0090938D0080938C004091CF
:1009E00084035091850360918603709187038FE0A3
:1009F00090E00E94AD2D6091BA057091BB05809189
:100A0000BC059091BD050E942310B9C0882309F44C
:100A1000B6C08091840383FB222720F991E09227BE
:100A200090FB83F980938403992329F040E060E0F0
:100A300080E00E94C31E4091840350918503609121
:100A40008603709187038FE090E00E94AD2D97C0E0
:100A5000882309F4C8C790911701809184039F3FB0
:100A600059F4109217018F7E8093840340E060E078
:100A700080E00E94C31E06C09FEF90931701806123
:100A80008093840340918403509185036091860391
:100A9000709187038FE090E028960FB6F894DEBF40
:100AA0000FBECDBFDF91CF911F910F91FF90EF90BF
:100AB000DF90CF90BF90AF909F908F900C94AD2D12
:100AC0000B3FFCE51F07B1F058F4093F3CE5130765
:100AD00009F4ACC00A3F9CE5190709F48AC04FC06D
:100AE0000D3FECE51E0781F168F00E3F2CE5120783
:100AF000C9F145C0882309F476C781E00E94CF1E62
:100B00008BE107C0882309F46EC781E00E94CF1EE5
:100B10008CEA8093FE058FEF8093FF05809300069B
:100B200028960FB6F894DEBF0FBECDBFDF91CF91F0
:100B30001F910F91FF90EF90DF90CF90BF90AF90FB
:100B40009F908F900C94C71E882309F44CC781E0B6
:100B50000E94CF1E85ED8093FE058BEF8093FF05ED
:100B60008AEFDCCF882309F43EC781E00E94CF1EC4
:100B70001092FE0585E08093FF0587EFCFCFF60149
:100B80008281882381F0033E3CE5130709F494C079
:100B900008F087C0013E9CE5190709F07BC0109260
:100BA00080030E94392017FFFBC0F601828181116A
:100BB00089C00A3CFCE51F0709F447C108F453C18A
:100BC000013D9CE5190709F4DEC250F1053DFCE545
:100BD0001F0709F413C308F4D1C60D3D9CE519079E
:100BE00009F41DC30E3DECE51E0709F021C3F60113
:100BF0008281882309F4F7C628960FB6F894DEBFE1
:100C00000FBECDBFDF91CF911F910F91FF90EF905D
:100C1000DF90CF90BF90AF909F908F900C94BB21AE
:100C20000D3CFCE51F0739F4F6018281882309F4A5
:100C3000DAC681E01BC00E3C2CE5120708F4B3C2F3
:100C40000F3C9CE5190709F479C608F087C6F60140
:100C50008281882309F4C7C68091FD058695869513
:100C6000825C8F73833008F438C182E028960FB617
:100C7000F894DEBF0FBECDBFDF91CF911F910F91D2
:100C8000FF90EF90DF90CF90BF90AF909F908F90AC
:100C90000C94CF1E023EECE51E0709F084CF81E0E4
:100CA0000EC0043EFCE51F0749F0053E2CE5120787
:100CB00009F079CF84E003C082E001C083E0809333
:100CC00080036FCF8091C60580936E031092C60596
:100CD00080918003813071F048F08230D1F084300F
:100CE000F1F486EE0E94772C88E117C082EE0E9414
:100CF000662B15C086E19DE00E94962788E10E9440
:100D0000662B88E10E940A2B86E09DE00E949627D0
:100D100006C082EE0E94662B87E50E94772C8FE347
:100D20009CE90197F1F700C000007801E894F7F81A
:100D30005CE0A52EB12CC7010A2C02C096958795C0
:100D40000A94E2F7282F2F7041F0822F90E02A308A
:100D500010F44D9604C0069702C087E290E00E940E
:100D6000772C94E0A91AB108ECEFAE16EFEFBE06AF
:100D700011F780918003813039F040F0823031F0FA
:100D8000843051F488E206C08CE204C082EE0E94F6
:100D90000A2B02C00E94772C80916E038093C605B7
:100DA000003FFCE51F07B1F180F4083D3CE5130767
:100DB000C9F0093D8CE51807C9F1073D9CE5190705
:100DC000C1F526E241EE61EE10C0023FECE51E07E0
:100DD00049F120F1033F2CE5120759F527E245EED2
:100DE00066EE03C027E245EE65EEC60128960FB613
:100DF000F894DEBF0FBECDBFDF91CF911F910F9151
:100E0000FF90EF90DF90CF90BF90AF909F908F902A
:100E10000C94622026E241EE60EEE7CF27E245EE39
:100E200064EEE3CF26E241EE62EEDFCF28E241E05E
:100E3000DBCFF6018281882319F010926F03B9CEBF
:100E40000A3CFCE51F0709F072C1F6018281882384
:100E500009F4C9C52091000630E1231B08F420E005
:100E6000209300065DCE033C3CE51307E9F4F60150
:100E70008281882309F4B7C58091C605827269F121
:100E800028960FB6F894DEBF0FBECDBFDF91CF918D
:100E90001F910F91FF90EF90DF90CF90BF90AF9098
:100EA0009F908F900C94DB1E043C8CE5180748F152
:100EB000063C9CE5190709F44AC108F001C5043C49
:100EC000FCE51F0709F04EC1F6018281882309F471
:100ED0008AC58091C605827299F228960FB6F89459
:100EE000DEBF0FBECDBFDF91CF911F910F91FF905D
:100EF000EF90DF90CF90BF90AF909F908F900C9429
:100F0000F11E05319CE5190708F0C6C00230ECE57A
:100F10001E0708F469C0F6018281882309F493C191
:100F20000E94B021811102C00E94BB2184E090E0A8
:100F30000E94772D90E09093970380939603F80199
:100F4000E350FC45E231F10530F4EA5AFF4F80915D
:100F500096030C94832F80919603816027C0826052
:100F600025C0846023C0806121C080621FC080646E
:100F70001DC080681BC08460886018C08E7F16C04A
:100F80008D7F14C08B7F12C08F7E10C08F7D0EC0EE
:100F90008F7B0CC08F770AC08B7F877F07C087FB52
:100FA000222720F991E0922790FB87F980939603FE
:100FB0006091960384E090E00E949B2D1092C605FC
:100FC00028960FB6F894DEBF0FBECDBFDF91CF914C
:100FD0001F910F91FF90EF90DF90CF90BF90AF9057
:100FE0009F908F900C94E22A0115FCE51F0709F0F1
:100FF00044C0F6018281882309F4F5C41092C60525
:101000000E94E22AFFEF04E31CE0F1500040104090
:10101000E1F700C00000F89481E08093E00080E2F6
:101020008093D8001092C9008FE19EE40197F1F7F8
:1010300000C000001DBA109268001CBC10BE1FBA90
:1010400010927A0010926E0010926F001092710050
:10105000109272001092C9001092BC0014B817B818
:101060001AB81DB810BA1092BC0015B818B81BB841
:101070001EB811BA0C94003FB6C401301C4509F0EB
:10108000E2C0F6018281882309F4ADC48091AA03ED
:1010900081608093AA03A7C406313CE51307A9F534
:1010A0009091C605F6018281882381F09A7A81E0C9
:1010B00009F480E080937003811102C069E201C0ED
:1010C00065E389E295E00E9478210BC0809170036E
:1010D000811102C069E201C065E389E295E00E94E6
:1010E0004D2128960FB6F894DEBF0FBECDBFDF911D
:1010F000CF911F910F91FF90EF90DF90CF90BF9015
:10110000AF909F908F900C948022023C1C4509F078
:101110009AC0F6018281882309F465C49091FD0587
:1011200081E089278093FD0510920601F9CC0B3CE4
:101130002CE5120720F5033C3CE5130709F497CE94
:1011400008F490C0063C9CE5190709F0ABC3F60112
:101150008281882309F447C48091FE0588508093DA
:10116000FE05DECC053C1C4509F06DC0F601828110
:10117000882309F438C48091FE05885FF0CF013DD3
:101180009CE5190791F5F6018281882309F42BC4A7
:101190008091FD05869586958F5C8F73853008F468
:1011A0009CCE8FE063CD0B3C3CE5130761F4F60168
:1011B0008281882309F417C42091010630E1230FAE
:1011C00008F42FEF0FC00C3C1C4509F03CC0F601A1
:1011D0008281882309F407C42091010630E1231B92
:1011E00008F420E0209301069BCC023DECE51E07AD
:1011F00008F493C3053DFCE51F0739F4F60182812D
:10120000882309F4F0C383E231CD063D2CE51207B3
:1012100008F4B4C30D3D9CE5190709F0DAC3F601E3
:101220008281882309F4DFC382E080937D03DBC3DE
:101230000C3D1C4541F4F6018281882309F4D3C397
:1012400010927D03D0C3F601828100811181882331
:10125000F9F0C8010E94C622F82E682FC8010E942A
:101260003F231AC005319CE5190708F011C302306D
:10127000ECE51E0708F04FCE0115FCE51F0709F449
:10128000B8CE01301C4509F4FCCEF6010081118175
:10129000C8010E941223F82EB8018F2D0E94C80D9C
:1012A000182F382FF601258122952F700281011108
:1012B0001092C0058091BE058770A9F0002399F0B7
:1012C00080E2810F883078F082E02F8338879E8318
:1012D0000E94A0238091BE058770EE24E3942F81A5
:1012E00038859E818111E12CA92EA2944FE0A42281
:1012F000B12CFCE0AF16B10408F097C2F501E85933
:10130000FF4F0C94832F892F807F9F70F92E8823A5
:1013100019F0F29480EFF8220023B9F0FF2009F4CD
:1013200015C280E2810F883010F0311106C0909113
:10133000C605F92AF092C60505C09091C005F92AA4
:10134000F092C0050E94802201C2812F38870E943E
:101350000A2B3885FF2009F468C2105EF09418301B
:1013600010F0311106C09091C605F922F092C60521
:1013700005C09091C005F922F092C0050E9480221C
:1013800054C2492F407F892F8F70403211F08295CF
:10139000807F332319F03130E9F025C0002381F03C
:1013A0003091C105222351F0213041F4982F932B25
:1013B000391709F43AC29093C10537C2832B17C07D
:1013C000222319F0213009F430C28E830E947A2240
:1013D0008E811DC0002321F0223008F026C207C0F4
:1013E000211123C214C0002329F02111AFC10E9492
:1013F000002B1BC2222359F0193309F0B9C10FEF9A
:1014000027EE33E0015020403040E1F7AFC10E94A9
:10141000F52A0BC2292F26952695237030E0211539
:10142000310521F02130310559F0FFC1002319F0B9
:10143000812F937002C080E090E00E94941EFEC154
:10144000002319F0812F937002C080E090E00E9489
:101450007E1EF4C1892F837009F070C00111ECC1A8
:10146000812F829586958770880F880F412F4F7046
:1014700050E060E070E04A015B01082E04C0880C77
:10148000991CAA1CBB1C0A94D2F714FF12C00FE0CF
:1014900010E020E030E004C0000F111F221F331FB6
:1014A0008A95D2F7B901A80140955095609570953D
:1014B00003C040E050E0BA01969596959370892F4D
:1014C00090E08230910529F183309105C9F00091B7
:1014D000C2051091C3052091C4053091C50501973F
:1014E00059F0482959296A297B29CB01BA0160237F
:1014F0007123822393230AC0802A912AA22AB32A25
:10150000CB01BA01682979298A299B290E94DA230B
:1015100093C1482959296A297B298091C205909154
:10152000C305A091C405B091C5058A019B01082798
:1015300019272A273B27C901B801E8CF002319F052
:10154000892F817001C08695882309F475C1812F88
:10155000829586958770880F880F412F4F7050E0D5
:1015600060E070E04A015B01082E04C0880C991C01
:10157000AA1CBB1C0A94D2F714FF12C00FE010E0A3
:1015800020E030E004C0000F111F221F331F8A9596
:10159000D2F7B901A801409550956095709503C0A8
:1015A00040E050E0BA01969596959370892F90E0AF
:1015B00082309105E9F08330910579F10091BA0507
:1015C0001091BB052091BC053091BD05019759F0E4
:1015D000482959296A297B29CB01BA016023712343
:1015E0008223932320C0802A912AA22AB32A15C0DD
:1015F000482959296A297B298091BA059091BB0510
:10160000A091BC05B091BD058A019B01082719274F
:101610002A273B27C901B80106C0CB01BA016829B6
:1016200079298A299B290E946F2306C19F70F92E70
:10163000002339F0892F0E94B923812F0E94002BAB
:10164000FBC0812F0E94F52A8F2D0E947B23F4C0BE
:10165000812F323FC9F128F4303F49F0313F79F111
:1016600070C0333FC1F1343F09F44DC06AC000235C
:1016700011F12111DAC0292F2F7181E090E0A0E053
:10168000B0E0AC01BD0104C0440F551F661F771FB9
:101690002A95D2F78091BA059091BB05A091BC051F
:1016A000B091BD058A019B01082719272A273B27EE
:1016B000C901B80125C0223008F0B7C0DCCF002333
:1016C00029F0892F8F712EC00023D9F3892F8F71B4
:1016D0000E947B23AAC0002381F0292F2F7181E073
:1016E00090E0A0E0B0E0BC01CD0104C0660F771F20
:1016F000881F991F2A95D2F703C060E070E0CB01E4
:101700000E946F2392C0002381F0192F1F71812F37
:101710000E94B92328E0129FC001112483608093A6
:10172000BE05812F0E94B92380C081E02F830E94D3
:10173000A0232F81223008F478C082E00E94A023E9
:1017400074C0002339F0222309F4BBCF812F0E94FB
:10175000662B6BC0222309F4B9CF893349F43FEFDC
:1017600087EE93E0315080409040E1F700C00000E8
:10177000812F0E940A2B59C0323FB1F028F4303F2C
:1017800049F0313FF9F028C0343FB9F058F0353F07
:1017900071F022C0002309F451C090914A0581E004
:1017A000892708C081E0082700934A0547C0011136
:1017B00045C081E080934A0541C001113FC01092AD
:1017C0004A053CC0002329F080914905882329F36C
:1017D00029C0222311F332C0809149052223C1F090
:1017E000882341F090914A0581E0892780934A053A
:1017F00010924905812F002319F00E94662B1EC00C
:101800000E940A2B86E0F60111928A95E9F716C02C
:101810008823A1F0011112C090914A0581E0892727
:1018200080934A051092490509C0F8E0AF1AB10843
:1018300004E0A016B10410F40E94AA1EEE2009F4E0
:10184000D2C08091BE0580FDCEC0F6011282859582
:10185000859585950E94B923C6010E9466048091F2
:10186000BE0585958595859528960FB6F894DEBFBB
:101870000FBECDBFDF91CF911F910F91FF90EF90E1
:10188000DF90CF90BF90AF909F908F900C947B2370
:1018900006313CE5130709F403CC023C1C4509F46E
:1018A00038CCF3CC073CECE51E0750F4043CFCE5D7
:1018B0001F0709F409CB053C1C4509F457CCE5CCBE
:1018C000083C3CE5130771F4F6018281882309F492
:1018D0008AC02091FF0530E1231B08F420E020930B
:1018E000FF051EC9093C1C4560F4F601828188236E
:1018F00009F479C02091FF0530E1230F08F42FEFA0
:10190000EECFF6018281882309F46DC02091000694
:1019100030E1230F08F42FEFA3CA0D3CFCE51F07AD
:1019200009F482C908F08CC90B3C3CE5130709F4A3
:101930003ECC0C3C1C4509F44ACCA7CCF601828174
:10194000882309F450C08091FD0586958695865CB4
:101950008F73823008F4C1CA86E088C9F60182819B
:10196000882309F440C08091FD0586958695895CA1
:101970008F73853008F4B1CA89E078C9033D3CE52E
:10198000130731F4F6018281882369F188E16EC979
:10199000043D1C4578F4F6018281882321F1809171
:1019A000FD0586958695855D8F73823008F495CA0E
:1019B00085E15CC9F60182818823A9F08091FD054B
:1019C00086958695895D8F73893008F486CA89E18A
:1019D0004DC90E3DECE51E0709F409C90C3D1C4537
:1019E00009F053CC28CC28960FB6F894DEBF0FBE72
:1019F000CDBFDF91CF911F910F91FF90EF90DF90BE
:101A0000CF90BF90AF909F908F900895282F277010
:101A100081E090E001C0880F2A95EAF780959091C7
:101A2000C00589238093C0050C948022282F27703D
:101A300081E090E001C0880F2A95EAF79091C005F7
:101A4000892B8093C0050C948022CF93E82F873098
:101A500080F58091090190910A01892B09F047C016
:101A6000CE2F64E670E080E40E94902C90930A01EF
:101A700080930901892BD1F464E670E082E10E9431
:101A8000E72C90930A0180930901892B79F481E076
:101A900090E001C0880FCA95EAF764E670E080958F
:101AA0000E94E72C90930A0180930901CF910C9436
:101AB000632D90E0FC013797E730F105C0F4EC5856
:101AC000FF4F0C94832F209A289811C0219A2998AF
:101AD0000EC0229A2A980BC0239A2B9808C0529ABB
:101AE0005A9805C0539A5B9802C03E9A4698CF9187
:101AF0000895CF93873008F03FC0809109019091FD
:101B00000A01892B09F041C064E670E080E40E947C
:101B1000902C90930A0180930901892B11F0C0E069
:101B200027C064E670E083E10E94E72C90930A01ED
:101B300080930901892B99F764E670E081E40E94A3
:101B4000902C90930A0180930901892B41F784E638
:101B500090E00E94172D97FF05C090930A01809393
:101B60000901DDCFC82FC09510920A01109209011A
:101B70000E94632D8C2F0AC09FB18FB1807F869504
:101B800086959370892B809501C080E0CF91089550
:101B9000CF93DF9326E0729FF001112434E5839FF9
:101BA000E00DF11D1124E60FF11DEE0FFF1FE25AAB
:101BB000FE4FC591D491CE01C238D10549F1B0F4A0
:101BC000C133D10509F464C048F4C932D10509F420
:101BD00058C0CA32D10509F462C068C0C533D10506
:101BE00009F448C0C933D10599F060C0C33ED1059E
:101BF00041F138F4C03ED10591F0C23ED105B1F0BB
:101C000055C0C63ED10521F1C73ED10561F14EC098
:101C10002091960320FD12C221FD10C211C2209115
:101C2000960320FF0DC289E390E00AC2209196033B
:101C300022FF06C28091960384FDB2C183EE90E03C
:101C4000FFC18091960382FFF5CF82EE90E0F8C14C
:101C50002091960323FFF4C18091960384FDA0C1D7
:101C600087EE90E0EDC18091960383FFF5CF86EE7D
:101C700090E0E6C12091960325FFE2C189E290E061
:101C8000DFC12091960325FFDBC185E390E0D8C139
:101C90002091960326FFD4C18AE290E0D1C1209121
:101CA000960326FFCDC181E390E0CAC1C11520E5AE
:101CB000D20708F047C0C11530E4D30708F034C19B
:101CC000C83ED10518F5C03ED10508F0B9C1C83AE3
:101CD000D10570F4C53AD10508F0B0C0C130D105C6
:101CE00009F4AEC108F45CC1249708F459C1A8C135
:101CF000CF3BD10508F4ADC0C03CD10508F450C1BC
:101D0000FE01EE0FFF1FEA52FB4F02C1C11520E298
:101D1000D20760F4C11531E0D30708F091C1C03F8C
:101D2000D10508F43DC1CE0190658AC1C11580E39B
:101D3000D80708F0F0C0FE01FF70EE0FFF1FEA5A4F
:101D4000F94FE6C0C11595E5D90708F044C0C115A3
:101D500024E5D20708F000C1C11532E5D30710F51C
:101D6000C11581E5D80708F0E3C02C2F237081E06E
:101D700090E002C0880F991F2A95E2F79C689E01A7
:101D800074E0369527957A95E1F72370922BEC2F26
:101D9000EF70E695E69530E2E39FF00111248E2B7B
:101DA0009F2B4EC18C2F86958695AE01437055278B
:101DB000C115D34508F0C1C090E2899F900111245C
:101DC00081E090E002C0880F991F4A95E2F7822BCC
:101DD000932B9C6835C1C1152AE5D207A0F4C11523
:101DE00039E5D30708F0C6C0C11586E5D80708F461
:101DF000B8C0C11598E5D90708F4D2C09C2F882730
:101E0000806F906A1DC1C1152BE5D20708F4C8C0C8
:101E1000CE01C1153CE5D30708F4BFC0905681152B
:101E2000904208F0BDC08D2F8F710E943F20FE01AF
:101E3000FF27F0628F719F01382BADC0C53AD105E5
:101E400009F4B1C0C63AD10509F0B0C082E890E407
:101E5000F7C0C83AD10509F4ACC0C93AD10509F4B4
:101E6000ABC0CA3AD10509F4AAC0CB3AD10509F4EE
:101E7000A9C0CC3AD10509F4A8C0CB3BD10509F4DF
:101E8000A7C0CC3BD10509F4A6C0CD3AD10509F4D1
:101E9000A5C0C03BD10509F4A4C0CE3AD10509F4D0
:101EA000A3C0CF3AD10509F4A2C0C13BD10509F4C2
:101EB000A1C0C23BD10509F4A0C0C33BD10509F4C0
:101EC0009FC0C43BD10509F49EC0C53BD10509F4B0
:101ED0009DC0C63BD10509F49CC0C73BD10509F4A0
:101EE0009BC0C83BD10509F49AC0C93BD10509F490
:101EF00099C0CD3BD10509F498C0CE3BD10509F47A
:101F000097C0CA3BD10509F496C080E094E498C01C
:101F10008591949195C09E013327C901D3FF02C0DA
:101F2000986C8EC0906C8CC0CE019F70906A88C0F7
:101F30009C2F8827816F906A83C090E2899F9001CF
:101F4000112481E090E002C0880F991F4A95E2F7C2
:101F5000822B932B9A6874C09C2F8827846F906A79
:101F60006FC08C2F0E943F208F7190E0982F8827A0
:101F7000906266C08C2F8F700E943F20FE0194E01B
:101F8000F695E7959A95E1F7EF70F0E0FE2FEE27D2
:101F9000F0699F01282BC90153C09927906650C052
:101FA00080E090E04DC081E890E44AC083E890E48E
:101FB00047C082EE94E444C089EE94E441C08AEEC6
:101FC00094E43EC085EB94E43BC086EB94E438C0D7
:101FD00083EB94E435C084EB94E432C087EB94E463
:101FE0002FC08CEC94E42CC08DEC94E429C083E8E1
:101FF00095E426C08AE895E423C082E995E420C0F0
:1020000084E995E41DC081E296E41AC083E296E477
:1020100017C084E296E414C085E296E411C086E21B
:1020200096E40EC087E296E40BC08FE694E408C005
:1020300080E794E405C08AE296E402C080EE90E076
:10204000DF91CF910895CF92DF92EF92FF926B01D3
:102050007C010E942A2256985E9825982D982698F1
:102060002E9827982F9890E0FC013197E730F105E2
:10207000A8F4E558FF4F0C94832F259A2D9A0EC093
:10208000259A2D9A269A2E9A09C0259A2D9A04C02F
:10209000259A2D9A269A2E9A279A2F9AC701B60129
:1020A000FF90EF90DF90CF90089580E290E09093C2
:1020B0000A01809309018091780381110EC00E946A
:1020C0008A2C81E0809378032FEF83ED90E32150F9
:1020D00080409040E1F700C0000064E670E080E4DA
:1020E0000E94902C90930A0180930901892B09F09A
:1020F0004EC064E670E080E00E94E72C90930A01F5
:1021000080930901892B09F042C064E670E080E009
:102110000E94E72C90930A0180930901892BB9F55D
:1021200064E670E08FE30E94E72C90930A018093AD
:102130000901892B61F50E94632D64E670E080E45B
:102140000E94902C90930A0180930901892BF9F445
:1021500064E670E08CE00E94E72C90930A01809383
:102160000901892BA1F464E670E080E00E94E72C6D
:1021700090930A0180930901892B49F464E670E089
:102180008FE30E94E72C90930A01809309010E943B
:10219000632D80910901089556985E9825982D9891
:1021A00026982E9827982F988FEF90E0909389008B
:1021B0008093880090938B0080938A0090938D0089
:1021C00080938C00259A2D9A2FEF80E792E0215082
:1021D00080409040E1F700C00000269A2E9A2FEF31
:1021E00080E792E0215080409040E1F700C000007D
:1021F000279A2F9A2FEF80E792E02150804090405D
:10220000E1F700C0000025982D982FEF80E792E0BD
:10221000215080409040E1F700C0000026982E98A1
:102220002FEF80E792E0215080409040E1F700C01E
:10223000000027982F9856985E9825982D982698F4
:102240002E9827982F98089584B1807F84B985B1FE
:10225000807F85B98AB1837F8AB98BB1837F8BB93F
:102260003E984698089580B38C7080BB81B3836F8D
:1022700081BB08954F925F926F927F928F929F924F
:10228000AF92BF92CF92DF92EF92FF920F931F9384
:10229000CF93DF931F92CDB7DEB780910901909164
:1022A0000A01892B91F0809177038F5F80937703E8
:1022B00081110BC00E94551090E090930A01809309
:1022C0000901892B11F40E94CC1038E8E32E33E089
:1022D000F32E4FE8C42E43E0D42E5701912C10E08A
:1022E00007E0090D892D0E94250D802F0E94250DE4
:1022F000892D0E94790DD5019C91981721F08C931E
:102300008824839401C0812C802F0E94790DF601CE
:102310009081981719F0808381E001C080E08829BE
:10232000182B0E9424119394FFEFAF1ABF0A2FEFCE
:10233000C21AD20A37E09312D3CF0E9418216AEF53
:1023400070E00E945B2FBC01482F809172038823AC
:10235000D9F110927203E0917E03F0917F03DF01C7
:102360001E9690E08BEF2AEFA22EB12C20812B3FFE
:1023700099F0C22ED12C421720F09B012C193D0957
:1023800005C095012C193D09260F371F2F30310547
:1023900014F0808301C091E03196EA17FB0731F712
:1023A00090937203111102C0911110C01092710329
:1023B00060917E0370917F0390917203EBE9F3E0EB
:1023C00080E03EE03E0F32C01111F0CF80917103EA
:1023D0008111ECCF60917303709174038091750348
:1023E000909176030E94E5172FB7F89480907903B7
:1023F00090907A03A0907B03B0907C032FBF8092D3
:10240000730390927403A0927503B0927603409088
:10241000F9055090FA056090FB057090FC05AFEF50
:102420004A165A066A067A06D1F43AC0D7012D91A7
:102430007D015081521749F0DB015C915B3F21F433
:102440004C93208391E001C081E06F5F7F4F319614
:102450003E13ECCF9093720380937103BBCFAB011B
:10246000BC01662777276A017B01C094D094E09471
:10247000F094C414D504E604F70420F48FEF9FEF22
:10248000DC0106C0DB01CA01840D951DA61DB71D28
:102490008093F9059093FA05A093FB05B093FC0592
:1024A000F090BA03F11009C09091FD05892F837057
:1024B00021F0792E7694769401C0712C80910601DA
:1024C0008130A1F038F0823009F454C1833009F42E
:1024D0005EC16EC1109216018092F5059092F605CC
:1024E000A092F705B092F80581E04EC180910801F5
:1024F000781210C08091FD05837090E02091070153
:1025000030E051E040E08217930709F450E0252FB6
:10251000342F02C021E030E0822F817080931801B7
:10252000872D90E08531910508F012C1FC01EE572E
:10253000FF4F0C94832F90911601232B09F408C1AF
:10254000E92EEE0CEE0CE90E05E00E0D013308F05D
:1025500000E3E01608F0BDC020E040E060E08E2D12
:1025600090E00E94C51EE394F4CF90911601C92E0D
:10257000CC0CCC0CC90E05E00C0D013308F000E3C7
:102580006091FE057091FF05809100060E94A01FDA
:10259000E62ED82EC01608F09CC0EC2DF0E0DF012E
:1025A000A35CBC4F8C9190911701982341F02D2D85
:1025B0004E2D672FCF0179830E94C51E7981C39468
:1025C000E9CF80911601A82EAA0CAA0CA80E35E01E
:1025D0003A0D313308F030E3E090FF05B09000068B
:1025E0002091010600E4029F012D1124A31628F575
:1025F000CA2CD12CF601E35CFC4F8081909117012D
:102600009823C9F0F601EE0FFF1FE252FD4F9081B3
:1026100092959F706091FE05099F600D11247E2D9B
:102620008B2D39830E94A01F462F282F672FC601AC
:102630000E94C51E3981A394D9CF81E0303308F4BC
:1026400088C086C080911601C82ECC0CCC0CC80E58
:1026500005E00C0D013308F000E3E090FE057091F9
:10266000FF05D090000680910106682F669566955B
:1026700066958091F5059091F60579830E94951FE6
:102680000E94131F8058982F97FD9195990F292F1D
:102690003D2D239F212D11246E2D7981822F0E94A3
:1026A000A01FE62ED82EC016A0F4EC2DF0E0DF011E
:1026B000A35CBC4F8C9190911701982341F02D2D74
:1026C0004E2D672FCF0179830E94C51E7981C39457
:1026D000EACF81E00033E8F13BC083E49BE102C034
:1026E00087E19BE10E944C2734C08CE19CE11DC036
:1026F0008DEF9BE11AC082EE9BE11CC087EC9BE151
:1027000019C085E19BE1EECF8CE09BE1EBCF83E04C
:102710009BE1E8CF88EE9AE1E5CF89ED9AE10AC026
:1027200086E69FE102C086EB9BE10E94F02611C085
:1027300082EA9BE10E9474260CC08BEA9AE105C0F4
:1027400089E79AE102C08BE39AE10E94132601C057
:1027500080E0909116019F5F90931601811128C02F
:1027600082E08093060180911801811121C07720B9
:1027700051F01EC0709208018091FD058370809316
:1027800007010E946C1C83E08093060111C06091D8
:10279000F5057091F6058091F7059091F8050E9476
:1027A000E5176A3171058105910510F01092060157
:1027B000F11084C08091BA03811180C0809184039C
:1027C00083FD7CC06091BA057091BB058091BC050A
:1027D0009091BD050E942A22823009F067C086ECE4
:1027E000E82E85E0F82E612C712CF701649131966A
:1027F000749131968491611107C0711105C08111E6
:1028000003C020E040E043C00E94A01FC62E072F57
:10281000D82E90910006692F70E080E090E00E9431
:10282000602E20E030E04FE753E40E94BF2D4B01C3
:102830005C016D2D70E080E090E00E94622E9B01B3
:10284000AC01C501B4010E94EE2E0E94312ED62E9D
:102850006C2D70E080E090E00E94622E9B01AC0144
:10286000C501B4010E94EE2E0E94312EC62E602FAB
:1028700070E080E090E00E94622E9B01AC01C501F7
:10288000B4010E94EE2E0E94312E2D2D4C2DC3013D
:102890000E94C51EFFEF6F1A7F0A23E0E20EF11CB3
:1028A00030E36316710409F0A0CF08C080911701CE
:1028B000811104C040E060E00E94C31E812F0F9090
:1028C000DF91CF911F910F91FF90EF90DF90CF900C
:1028D000BF90AF909F908F907F906F905F904F9040
:1028E0000895E8EDF0E080818E7F80831092E20011
:1028F0001092DA001092E100A0EEB0E08C918160BD
:102900008C9380818F77808319BCA7EDB0E08C9188
:102910008E7F8C9380818F7E80831092B90308957F
:1029200008958091C8050895CF93DF9300D01F923A
:10293000CDB7DEB79C0190917D03911105C08091C8
:10294000EB05843049F504C0923011F0943021F544
:1029500084E089833B832A8382E08093E9008FEFC0
:102960009091E800815095FD06C095ED9A95F1F79C
:1029700000008111F5CF8091E80085FF0DC040E097
:1029800050E063E070E0CE0101960E94A1278091A3
:10299000E8008E778093E8000F900F900F90DF9102
:1029A000CF910895CF93DF9300D01F92CDB7DEB7BC
:1029B0002091EB05243031F523E0298380589109DB
:1029C0009B838A8382E08093E9008FEF9091E800F7
:1029D000815095FD06C095ED9A95F1F700008111A3
:1029E000F5CF8091E80085FF0DC040E050E063E046
:1029F00070E0CE0101960E94A1278091E8008E77B9
:102A00008093E8000F900F900F90DF91CF91089581
:102A1000CF93DF9320917D03211103C02091EB051B
:102A200002C0223011F02430E1F52091150122235B
:102A300039F02091960327FF03C060E222E002C034
:102A400068E021E02093E9002FEF3091E800215069
:102A500035FD06C035ED3A95F1F700002111F5CFAF
:102A60002091E80025FF1DC0EC0180911501811126
:102A700005C040E050E068E070E003C070E040E076
:102A800050E0CE010E94A1278091E8008E778093CC
:102A9000E80080E2FE01A9ECB5E001900D928A9574
:102AA000E1F7DF91CF9108951F920F920FB60F9229
:102AB00011242F933F934F935F936F937F938F9343
:102AC0009F93AF93BF93CF93DF93EF93FF93C09107
:102AD000E900CF708091EC00D82FD17080FDD0E854
:102AE0001092E9008091F000877F8093F000789445
:102AF0000E94D8271092E9008091F00088608093AE
:102B0000F000CD2BCF70C093E900FF91EF91DF91E2
:102B1000CF91BF91AF919F918F917F916F915F9175
:102B20004F913F912F910F900FBE0F901F901895CE
:102B30002091E4003091E50095E64091EC00842F6F
:102B4000817040FF22C08091E80080FD1CC0809110
:102B5000EB05882391F0853091F08091EB0085FDA5
:102B600010C04091E4005091E5004217530729F34B
:102B70009A01915011F784E0089582E0089583E06E
:102B8000089581E0089580E008954091E80042FFB3
:102B9000DECF08958091ED0587FF11C08091E80098
:102BA00082FD05C08091EB058111F8CF11C08091A5
:102BB000E8008B770BC08091EB05882349F080916A
:102BC000E80080FFF8CF8091E8008E778093E800DE
:102BD0000895982F973058F59093E900981739F099
:102BE0007091EC002091ED005091F00003C0242F73
:102BF000762F50E021FF19C03091EB003E7F3093DB
:102C0000EB003091ED003D7F3093ED003091EB0013
:102C100031603093EB007093EC002093ED00509303
:102C2000F0002091EE0027FF07C09F5FD3CF8F7089
:102C30008093E90081E0089580E00895CF92DF92CB
:102C4000EF92FF920F931F93CF93DF93C8EDD0E0E5
:102C500088818F7E8883E7EDF0E0808181608083CA
:102C600084E082BF81E08093B90388818E7F88836E
:102C700002EE10E0F80110821092DA0081EEC82E08
:102C8000D12CF601108288818F77888388818068B3
:102C9000888388818F7D888319BC1092EB05109200
:102CA000EC051092EA051092E90590EEE92EF12C60
:102CB000F70180818B7F808388818160888342E0F7
:102CC00060E080E00E94E915F60180818E7F8083BC
:102CD000F801808181608083808188608083F70132
:102CE00080818E7F8083888180618883DF91CF910E
:102CF0001F910F91FF90EF90DF90CF9008951F925A
:102D00000F920FB60F9211242F933F934F935F931F
:102D10006F937F938F939F93AF93BF93EF93FF93A3
:102D20008091E10082FF09C08091E20082FF05C02E
:102D30008091E1008B7F8093E1008091DA0080FF39
:102D40002AC08091D80080FF26C08091DA008E7F53
:102D50008093DA008091D90080FF18C080E189BD9E
:102D600082E189BD09B400FEFDCF81E08093EB05CF
:102D70008091B90381110FC00E9471140E941E1628
:102D80008091E20084608093E20005C019BC10923B
:102D9000EB051092B9038091E10080FF17C080918C
:102DA000E20080FF13C08091E2008E7F8093E200FA
:102DB0008091E20080618093E2008091D80080627F
:102DC0008093D80019BC85E08093EB058091E100E9
:102DD00084FF36C08091E20084FF32C080E189BD6B
:102DE00082E189BD09B400FEFDCF8091D8008F7DBE
:102DF0008093D8008091E1008F7E8093E1008091E4
:102E0000E2008F7E8093E2008091E20081608093F7
:102E1000E2008091EC05882311F084E007C08091E6
:102E2000E30087FD02C081E001C083E08093EB05F1
:102E30001092C6050E94E22A0E94AA1E1092BA03AE
:102E40008091E10083FF27C08091E20083FF23C0CF
:102E50008091E100877F8093E10082E08093EB0521
:102E60001092EC058091E1008E7F8093E1008091CB
:102E7000E2008E7F8093E2008091E2008061809387
:102E8000E20042E060E080E00E94E9158091F000FD
:102E900088608093F000FF91EF91BF91AF919F9177
:102EA0008F917F916F915F914F913F912F910F90F3
:102EB0000FBE0F901F9018952091F3053091F405E7
:102EC0002617370748F06115710539F42091E8009D
:102ED0002E772093E80001C0B90140E0611571052B
:102EE000A9F12091EB05222309F443C0253009F410
:102EF00042C02091E80023FD40C02091E80022FD5F
:102F000032C02091E80020FFE9CF4091F3002091EA
:102F1000F20030E0342BFC01CF016115710559F04E
:102F20002830310540F481918093F100615071099E
:102F30002F5F3F4FF1CF41E02830310509F040E0ED
:102F40002091E8002E772093E800C8CF4111C9CF27
:102F50000AC08091EB05882361F0853061F0809193
:102F6000E80083FD0AC08091E80082FFF2CF80E094
:102F7000089582E0089583E0089581E008957894AB
:102F80001F920F920FB60F9211248F939F93AF93BE
:102F9000BF938091790390917A03A0917B03B091C4
:102FA0007C030196A11DB11D8093790390937A0350
:102FB000A0937B03B0937C03BF91AF919F918F91BE
:102FC0000F900FBE0F901F901895CF92DF92EF9247
:102FD000FF920F931F932FB7F894C0907903D0906E
:102FE0007A03E0907B03F0907C032FBF970186016A
:102FF000061B170B280B390BC616D706E806F90671
:1030000018F0C901B80106C0C901B80161507109C1
:10301000810991091F910F91FF90EF90DF90CF9060
:103020000895CF93DF93CDB7DEB72A970FB6F89404
:10303000DEBF0FBECDBF84B7877F84BF0FB6F894C5
:10304000A895809160008861809360001092600074
:103050000FBE80E8809361001092610085B78068A0
:1030600085BF85B7806885BF0E9471140E941E16B7
:103070008091E20084608093E20078948091EB0577
:103080008823A1F01091E9001F709091EC00892F26
:10309000817090FD80E8182B1092E9008091E80083
:1030A00083FD0E94D8271F701093E90082E084BD41
:1030B00093E095BD9AEF97BD80936E000E945510E6
:1030C00090E090930A01809309010E9424110E94CC
:1030D0003311A8E8B3E0EBE9F3E06EE0F62EFE0E64
:1030E00011921D92FE12FCCF8EE090E00E94892F7B
:1030F00080937E0390937F03FC010E962BEF219328
:10310000E817F907E1F70E94B021811102C00E947F
:10311000BB210E94D91C0E94B021811104C00E94D1
:10312000BB210E94071F45E050E06CE170E08DEF8D
:1031300095E00E94672D8091FD058C7F11F40E941F
:10314000071F8CE090E00E94772D90E0A0E0B0E0B7
:103150008093800390938103A0938203B0938303B1
:1031600089EA8093800089E08093810024982C98DC
:103170003F988AB18F7C8AB96E98479A8BB18063E9
:103180008BB9769A8FE090E00E947F2D6093840344
:1031900070938503809386039093870367708FEF06
:1031A000869FB0011124759567957595679577276A
:1031B000709389006093880070938B0060938A00FD
:1031C00070938D0060938C009091840394FF03C0F2
:1031D0008093170102C0109217010E94CC100E9428
:1031E000B021811102C00E94BB2182E090E00E94C8
:1031F000772D8093AA0384E090E00E94772D90E0E1
:10320000909397038093960383E090E00E94772D3C
:10321000682F70E080E090E00E94DA230E94B61EE2
:103220000E94B61E0E94C71E8BE091E09093990306
:103230008093980399249A94CC24C394D12CEE249F
:10324000E39490E1592E22E1422E38E1A32EB12CD5
:1032500040E4842E8091EB05853009F052C040E0B7
:1032600060E080E00E94C31EE092BA038091EB050B
:10327000843041F110929A030FB6F894A895A09269
:1032800060000FBE8092600040E060E080E00E943D
:10329000C31EE092BA0383B7817F846083BF83B784
:1032A000816083BF7894889583B78E7F83BF0FB684
:1032B000F894A895809160008861809360001092D6
:1032C00060000FBE8091EA05882309F4C3CF0E94F5
:1032D000551090E090930A01809309010E942411F7
:1032E0000E943311EBE9F3E01192FE12FDCF0E9430
:1032F0003A11EBE9F3E08191811167C0FE12FBCF37
:10330000A9CF0E943A11EBEAF3E0ABE9B3E000E0A9
:1033100010E0702F6D9121912627B1F180E090E0AF
:1033200030E0782EA901082E02C0559547950A94E1
:10333000E2F740FF25C089837A83C60102C0880F67
:10334000991F7A94E2F73C01862F90E0862197211D
:1033500021E0892B09F420E02B830E941821816051
:10336000782F9D838C8349815A816B818D810E9446
:10337000A81DF801E555FC4F80816826608219C0C0
:1033800001968630910569F60F5F1F4F0E301105CB
:1033900009F0BFCF9E829F8218860E94182181600B
:1033A000782F9A8789874E815F8168858A850E94F8
:1033B000A81D1091A9030E94AA1E181709F44ACF4C
:1033C0000E94AA1E8093A90345CF59BC49BC09B4E9
:1033D00000FEFDCF8091D8008F7D8093D800809132
:1033E000E00082608093E0008091E00081FDFCCFEE
:1033F00031CF8033910520F5880F991F880F991FD1
:10340000FC01EF5DFE4F52813381808183707181B9
:10341000E0E98E9FC00111248B509C4FFC01E70F07
:10342000F11DB4976083FC01E50FF11DB497408353
:10343000830F911DFC01B497208381E08093F403F6
:103440000895FF920F931F93CF93DF93182F062FAA
:10345000F42EC0E0D0E02F2D402F612FCE010E942E
:10346000F9192196C033D105B1F7DF91CF911F91A2
:103470000F91FF9008950F931F9310E0F801EE0F46
:10348000FF1FE352FD4F9081905797FD9195000FDC
:10349000111FF801E252FD4FE081F0E0B097DF012B
:1034A000AA0FBB1F8D010E0F1F1F2003D001219FEC
:1034B000B00D1124E8E3F0E0E91BF10997FDF39565
:1034C0009F01220F331F89010E0F1F1F4003900120
:1034D000419F300D11242A0F3B1F37FF02C0215896
:1034E0003F4F220F232F221F330B620F1F910F918B
:1034F00008950F931F93522F10E0F801EE0FFF1F56
:10350000E252FD4FE081F0E0B097EE0FFF1F9F0108
:103510005203D001539FB00D1124000F111FF80169
:10352000E352FD4F008110E000571109000F111FF9
:1035300040039001419F300D11242A0F3B1F37FF9C
:1035400002C021583F4F220F232F221F330B620F3F
:103550001F910F9108950F931F93522F10E0F801C0
:10356000EE0FFF1FE252FD4FE081F0E0B0979F01A8
:103570005203D001539FB00D1124000F111FF80109
:10358000E352FD4F008110E0005711094003900104
:10359000419F300D11242A0F3B1F37FF02C02158D5
:1035A0003F4F220F232F221F330B620F1F910F91CA
:1035B0000895EF920F931F9393E0099F80011124C8
:1035C000159507956E2D600F1F910F91EF9008953F
:1035D00050E0FA01EE0FFF1FE252FD4F9081905232
:1035E00097FD9195440F551FFA01E352FD4F40811D
:1035F00050E0FA01E21BF1099F01290F311D97FDEF
:103600003A95620F0895E42FF0E0EE0FFF1FE252AB
:10361000FD4F6081621B0895E42FF0E0EE0FFF1F65
:10362000E352FD4F6081621B0895622F0895E42FDD
:10363000F0E0EE0FFF1FE352FD4F408134EE439F59
:10364000412D1124E82FF0E050E0445E5F4FDA0195
:10365000A21BB1099D01B7FF03C031952195310926
:1036600093E0220F331F9A95E1F7AF01421B530BF2
:103670009A0157FF02C020E030E0582F259F212DEE
:103680001124822F0895E42FF0E0EE0FFF1FE35284
:10369000FD4F408134EE439F412D1124E72FF0E090
:1036A00050E0445E5F4FDA01A21BB1099D01B7FFF4
:1036B00003C031952195310993E0220F331F9A956C
:1036C000E1F7AF01421B530B9A0157FF02C020E004
:1036D00030E0279F212D1124722F0895FC01CB018A
:1036E000309721F477FF2CC080E808959F01F7FF01
:1036F00004C0222733272E1B3F0BBC01621B730B18
:10370000280F391F97FD0DC0CB0145E0880F991F89
:103710004A95E1F7B9010E946F2F80E2861B682F5E
:1037200009C0C90125E0880F991F2A95E1F70E9479
:103730006F2F605A862FF7FF02C081950895089574
:1037400080E00895EF920F93CF93DF93D72FC82F88
:10375000C9010E19BA010E946E1B602F681B7D2FD4
:103760008C2FDF91CF910F91EF9008950F93CF930E
:10377000DF93D72FC82FC901BA010E946E1B682F93
:10378000600F7D2F8C2FDF91CF910F910895EF92D5
:103790000F931F93CF93DF93D62FC72F182FC901F5
:1037A0000E19010FBA010E946E1B081B019F012D0B
:1037B00011246D2F7C2F802FDF91CF911F910F91BE
:1037C000EF900895EF920F931F93CF93DF93D62F2F
:1037D000172FC82FC9010E19070FBA010E946E1BBF
:1037E000081B702F719F712D11246D2F8C2FDF916D
:1037F000CF911F910F91EF900895FF920F931F9318
:10380000CF93DF93F62ED72F182FC901C12FC01BDE
:10381000BA010E946E1B982F880F980F2C2F291B1E
:10382000219F212D11246F2D7D2F822FDF91CF918C
:103830001F910F91FF900895FF920F931F93CF93C5
:10384000DF93F62E172FD82FC901C72FC01BBA013F
:103850000E946E1B982F880F980FC91B7C2F719F99
:10386000712D11246F2D8D2FDF91CF911F910F910D
:10387000FF900895EF92FF921F93CF93DF937B0108
:10388000182F110FC0E0D0E08C2F8C5D8093E003E7
:1038900020E030E0F901EC0FFD1FEE0DFF1D8081EF
:1038A000F901E052FC4F81832F5F3F4F20313105FA
:1038B00089F724E630E041E150E060EE73E0812FCB
:1038C0000E943C2D6096C039D105F1F6DF91CF9171
:1038D0001F91FF90EF9008958091F403882351F099
:1038E00065EF73E084E70E943A1C65E874E087E7BF
:1038F0000E943A1C1092F4030895E0EEF3E0608316
:10390000418324E630E042E050E0BF01880F0C9490
:103910003C2DCF93DF93C82F4BE06DEF0E947D1CB1
:1039200040E06AE08C2F0E947D1C8FE39CE90197A8
:10393000F1F700C0000040E060E08C2F0E947D1C89
:1039400040E061E08C2F0E947D1C40E066E08C2FFF
:103950000E947D1C40E06DEF8C2F0E947D1CD0E00A
:1039600040E06D2F8C2F0E947D1CDF5FD231C1F7AC
:1039700040E06D2F8C2F0E947D1CDF5FD432C1F799
:1039800040E06D2F8C2F0E947D1CDF5FD43BC1F780
:103990004BE06DEF8C2F0E947D1C41E06AE08C2F84
:1039A0000E947D1C40E06DEF8C2FDF91CF910C9435
:1039B0007D1C7F928F929F92AF92BF92CF92DF92A7
:1039C000EF92FF920F931F93CF93DF930E948A2C65
:1039D00084E70E94891C87E70E94891CE4E2EE2E9E
:1039E000E1E0FE2EC12CD12CF2E17F2EA8E08A2E40
:1039F000912CAA24A394B12CF7013297608170E036
:103A0000CB0184973196E081F0E0B497D7012C91F7
:103A100030E024523109D601AA0FBB1FAA0FBB1FE9
:103A2000AF5DBE4FCC91C370D0E0AC0197FF02C038
:103A3000495F5F4F63E0559547956A95E1F77C9E36
:103A400080017D9E100D1124040F111D05541C4F83
:103A5000B4010E946F2FA50102C0440F551F8A9523
:103A6000E2F7CA01D8019C91892B8C93CF01F7FD15
:103A7000079653E0959587955A95E1F77C9E8001CE
:103A80007D9E100D1124080F111D05541C4FCF01F0
:103A9000B4010E946F2FF50102C0EE0FFF1F8A953F
:103AA000E2F7CF01D8019C91892B8C93C90137FD96
:103AB000079643E0959587954A95E1F77C9EF0013E
:103AC0007D9EF00D1124E80FF11DE554FC4FC90156
:103AD000B4010E946F2F950102C0220F331F8A95F7
:103AE000E2F7C9019081892B80833FEFC31AD30A83
:103AF00044E0E40EF11C50E3C516D10409F07CCF7C
:103B000081E08093DF030BEB13E0C0E0D0E0D8014D
:103B10004D918D016C2F84E70E947D1CFE01E554C0
:103B2000FC4F42896C2F87E70E947D1C2196C23191
:103B3000D10569F7DF91CF911F910F91FF90EF9021
:103B4000DF90CF90BF90AF909F908F907F9008951F
:103B5000EF92FF920F931F93CF93DF93CDB7DEB712
:103B600067970FB6F894DEBF0FBECDBF4B8B5C8B53
:103B70006D8B7E8B8F8B0E891F8901151105C1F10D
:103B80005F3F11F44F3FA1F1E42EF12CA1E0B0E032
:103B9000042E01C0AA0F0A94EAF7852F90E066234D
:103BA00019F020914A0506C09C01255E3A4FF901A3
:103BB00020812A232223A9F046E0489F9001499FB3
:103BC000300D1124F701E20FF31FEE0FFF1FEF512D
:103BD000FE4F40815181FC01E55EFA4F9081A92B97
:103BE00006C0FC01E55EFA4FA0958081A823A08362
:103BF00086E0FE013D96DF01982F1D929A95E9F728
:103C00004D875E876F87198B088BDE0117960190B1
:103C10000D928A95E1F7CE0107960E944924811101
:103C200037C086E0FE013796DE01119601900D92B5
:103C30008A95E1F7FF81E8856A857B8561157105C5
:103C400039F1EF3F11F4FF3F19F12091510530E0B8
:103C5000C9010196877099274091820550E0841729
:103C6000950779F1F983EA837D836C8396E0929FCF
:103C7000D001939FB00D1124AE5ABA4FFE01319678
:103C800001900D929A95E1F7809351050E94E423EB
:103C900016E08091820590915105891711F1189FC6
:103CA000C00111248E5A9A4F0E9449248823C9F0DA
:103CB0008091820590E00196877099278093820514
:103CC000E8CF1092C6050E94E22A10925105109288
:103CD0008205EBE4F5E086E0DF011D928A95E9F7C5
:103CE000D7CF67960FB6F894DEBF0FBECDBFDF917A
:103CF000CF911F910F91FF90EF900895209119059A
:103D000030911A058217930771F090931A058093EA
:103D10001905E0919803F0919903309721F0008400
:103D2000F185E02D0994089520911705309118052B
:103D30008217930771F09093180580931705E0910F
:103D40009803F0919903309721F00680F781E02DD8
:103D500009940895E0919803F0919903309721F028
:103D60000190F081E02D099480E008958091FD0597
:103D7000837011F4109206018091FD058C7F8160A3
:103D80008093FD0508950C94211A0C94F91945E0CF
:103D900050E06CE170E08DEF95E00C948B2DEDEF31
:103DA000F5E0880F880F90819370892B80831092A3
:103DB00006010C94C71E9091FD05892F8695869566
:103DC000815C8F739370882321F0880F880F892B73
:103DD00002C0892F80658093FD05109206010C9426
:103DE000C71E9091FD05892F869586958F5F8F73ED
:103DF0009370853120F4880F880F892B02C0892F9A
:103E000084608093FD05109206010C94C71EEDEFAF
:103E1000F5E08DE2808311828FEF828383838FE7C9
:103E200084830C94C71E482F982F46FD9095E92F48
:103E3000EF739F7046FD9F5FE295EF70EE0FF0E02D
:103E4000E75EFE4F2181299F802D212D112482952F
:103E50008F702295207F822B3081982F930F892F8E
:103E600047FD819580580895BC018230910508F482
:103E70000895613E8EE1780748F49B0195E0369500
:103E800027959A95E1F748E0420F01C04FEF91E086
:103E9000242F30E0290F311D35952795229FF00101
:103EA000239FF00DF00D11246E177F0718F44FEFCC
:103EB000420F05C02F3F310539F091E0920F4917AD
:103EC00038F78FEF890F08958FEF08950F931F93A1
:103ED000CF93DF931F92CDB7DEB7182F47FD4195E3
:103EE000E8E3F0E0CF01841B910947FD9395889F9B
:103EF000F001899FF00DF00D1124229FC001239F36
:103F0000900D900D11248E0F9F1F79830E94341FF6
:103F1000982F880F980F692F600F7981812F0F904C
:103F2000DF91CF911F910F91089520E030E0A9011A
:103F3000869F412D969F400D511D1124CA01089561
:103F4000CF92DF92EF92FF920F931F93CF93DF9365
:103F50007B01282F382FE82FF0E0F11006C0EA5A35
:103F6000F94F6491762F862F7BC00F2D10E046E02D
:103F7000649FC0011124CFEFD0E0BE010E945B2FEF
:103F8000AB016BEA6403C001659F900D11248E0D97
:103F9000911D8E0D911D982F990F890FBE01601BE9
:103FA000710B6E9FD0016F9FB00D7E9FB00D1124DD
:103FB0009B2F8F9DB0011124672F77277E01E61A72
:103FC000F70AEE9EB001EF9E700DFE9E700D11245B
:103FD0006E01C81AD108C09E7001C19EF00CD09E1F
:103FE000F00C11240F2D1127C01BD10BCE9F800187
:103FF000CF9F100DDE9F100D1124812F42305105EF
:1040000091F04CF441155105E1F041305105B9F4FE
:10401000822F272F16C04430510569F044F04630F6
:10402000510579F00CC0822F2B2F912F0AC02B2F16
:10403000932F872F06C08B2F922F212F02C08B2FFB
:10404000972FE22FF0E0EA5AF94F7491E82FF0E051
:10405000EA5AF94F6491E92FF0E0EA5AF94F849156
:10406000DF91CF911F910F91FF90EF90DF90CF9054
:104070000895609180038CE090E00C949B2D9091CA
:10408000960392FF0DC0282F2871283019F4877FDE
:10409000846006C0282F2471243011F48B7F88603F
:1040A00093FF0DC0282F2871283119F4877E846171
:1040B00006C0282F2471243111F48B7E886194FD71
:1040C000877E08956F927F928F929F92AF92BF9258
:1040D000CF92DF92EF92FF920F931F93CF93DF93D4
:1040E0001F92CDB7DEB7742E622EFC018281882329
:1040F00031F160936F0369830E9418219093160534
:1041000080931505698180E2860F883008F080C0B1
:10411000677081E001C0880F6A95EAF70F90DF9120
:10412000CF911F910F91FF90EF90DF90CF90BF90B4
:10413000AF909F908F907F906F900C94002B9091F8
:104140006F0396134AC040911505509116058FB71D
:10415000F8940091790310917A0320917B033091B8
:104160007C038FBF48015901AA24BB246A01E12CBA
:10417000F12C041B150B8C149D04AE04BF0410F429
:1041800001501109083C110540F510E2170D971573
:10419000B9F080E2890F883040F4977081E001C067
:1041A000880F9A95EAF70E94F52A183048F481E0C2
:1041B000972D977001C0880F9A95EAF70E94002BFF
:1041C000862D0E94772C183018F5972D977081E076
:1041D00001C0880F9A95EAF70AC080E2860F8830FE
:1041E000B8F4677081E001C0880F6A95EAF70F9014
:1041F000DF91CF911F910F91FF90EF90DF90CF90C3
:10420000BF90AF909F908F907F906F900C94F52A05
:104210000F90DF91CF911F910F91FF90EF90DF9062
:10422000CF90BF90AF909F908F907F906F900895A8
:104230002FB7F8948091790390917A03A0917B0332
:10424000B0917C032FBF08951F920F920FB60F926B
:1042500011248F939F93AF93BF9380919A03811101
:1042600013C08091790390917A03A0917B03B09160
:104270007C034196A11DB11D8093790390937A032D
:10428000A0937B03B0937C03BF91AF919F918F91DB
:104290000F900FBE0F901F901895209115012223AB
:1042A00021F02091960327FD04C0FC013296089668
:1042B00019C0262F2695269526952E31C0F4FC018F
:1042C000E20FF11D677081E090E001C0880F6A95F0
:1042D000EAF7809592818923828308953196E817C1
:1042E000F90729F020812613F9CF1082F7CF08951E
:1042F00020911501222321F02091960327FD05C06E
:10430000FC0132962FEF30E019C0262F2695269516
:1043100026952E3120F5FC01E20FF11D677081E03A
:1043200090E001C0880F6A95EAF79281892B828319
:1043300008952F3F39F03F5F363041F041914613E9
:10434000F8CF0DC04111F7CF232FF5CF2F3F39F014
:10435000FC01E20FF11D27FDFA956283089508958F
:1043600080E090E00E94852D21E08E3E9E4F09F076
:1043700020E0822F08956EEE7EEF80E090E00E94B4
:10438000B92D60E082E090E00E949B2D60E083E028
:1043900090E00E949B2D1092C2051092C3051092CE
:1043A000C4051092C50560E084E090E00E949B2D5A
:1043B00060E085E090E00E949B2D60E086E090E068
:1043C0000E949B2D6FEF87E090E00E949B2D40E0C4
:1043D00050E0BA0188E090E00E94AD2D60E08DE0F1
:1043E00090E00E949B2D40E050E0BA0188E190E00F
:1043F0000E94AD2D60E087E190E00E949B2D40E09F
:1044000050E0BA018CE190E00E94AD2D60E080E2C6
:1044100090E00E949B2D10928403109285031092CD
:1044200086031092870384E0806180938403409127
:1044300084035091850360918603709187038FE018
:1044400090E00E94AD2D40E050E0BA0183E190E0A1
:104450000C94AD2DCF92DF92EF92FF926C01EE247F
:10446000FF24C114D104E104F10421F0C701B60115
:1044700020E101C020E0C72ED82EE92EFF24C11470
:10448000D104E104F10419F0285FC701B6016B0102
:104490007C0154E0F694E794D794C7945A95D1F7E9
:1044A000C114D104E104F10419F02C5FC701B60175
:1044B0006B017C0142E0F694E794D794C7944A9547
:1044C000D1F7C114D104E104F10419F02E5FC70142
:1044D000B601DC01CB01B695A79597958795892BF9
:1044E0008A2B8B2B09F02F5F822FFF90EF90DF90AC
:1044F000CF9008958091C10581111092C105089552
:104500009091C0058091C605892B2091BF05982FF9
:10451000922B909329058091C1058823D9F0892B8E
:104520008093290580911501882331F080919603AD
:1045300087FF02C08EE101C086E0EBE2F5E090E08B
:10454000815028F021912223D9F39F5FF9CF911157
:104550000E947A22E0919803F09199033097A9F094
:1045600080911501882359F08091960387FF07C039
:104570008091290580932A0585E080932905028092
:10458000F381E02D89E295E009940895BF92CF92DE
:10459000DF92EF92FF920F931F93CF93DF938C01E3
:1045A000C090C205D090C305E090C405F090C50549
:1045B0008091BA059091BB05A091BC05B091BD0555
:1045C000C82AD92AEA2AFB2ACFE1D0E0D701C601BE
:1045D0000C2E04C0B695A795979587950A94D2F7A7
:1045E00080FF07C0BC2EB8018C2F0E94C80D019718
:1045F00019F4219758F7B12C8B2DDF91CF911F9192
:104600000F91FF90EF90DF90CF90BF900895CF93E0
:10461000DF93EC010E94C622BE010E94C80DDF910B
:10462000CF910895292F220F920F990F890F682F8C
:10463000669566956695982F977085E0689FB0019E
:10464000112440E050E080E0FA01E60FF71FED573B
:10465000FA4F208130E0092E02C0369527950A9442
:10466000E2F721703327042E01C0220F0A94EAF7E3
:10467000822B4F5F5F4F4530510531F70895292F49
:10468000220F920F990F890FA82FA695A695A69590
:10469000877051E001C0550F8A95EAF785E0A89F21
:1046A000D001112420E030E070E0F901EA0FFB1F97
:1046B000ED57FA4F4081CB01022E02C096958795A7
:1046C0000A94E2F7817099278195842785238427AE
:1046D00080832F5F3F4F2530310539F708950E94C1
:1046E00023106093BA057093BB058093BC0590932B
:1046F000BD050C94D42A0F931F9341E050E060E075
:1047000070E004C0440F551F661F771F8A95D2F7CB
:1047100040955095609570958091BA059091BB0534
:10472000A091BC05B091BD058A019B010823192306
:104730002A233B23C901B8011F910F910C946F23C9
:104740002091BE05809582238093BE05982F977097
:1047500079F430E0482F082E000C550B241735074C
:1047600039F08595859585950E947B231092BE052D
:1047700008950F931F9341E050E060E070E004C0A3
:10478000440F551F661F771F8A95D2F78091BA058F
:104790009091BB05A091BC05B091BD058A019B011C
:1047A000082B192B2A2B3B2BC901B8011F910F9104
:1047B0000C946F236093C2057093C3058093C40566
:1047C0009093C5050C94D42A80918205909151054F
:1047D000891719F08F5F8770FBCF0895809150057E
:1047E00082958F7009F054C080914D05882309F49B
:1047F0004FC080918205A091510560914B05709149
:104800004C0540914E0550914F05B6E08A1709F4CA
:104810003FC090E041155105C1F17F3F11F46F3F5A
:10482000A1F1B89FF001B99FF00D1124EE5AFA4F93
:10483000218172132AC02081621327C02281211195
:1048400024C0238134812417350710F42150310905
:10485000241B350B283C3105C0F4209150052F70E6
:1048600020612093500526E0289FF001299FF00D3C
:104870001124E95AFA4F80818F70806180838BE424
:1048800095E00E9466040C94E42301968770BECFE5
:104890000895BF92CF92DF92EF92FF920F931F93F2
:1048A000CF93DF93CDB7DEB761970FB6F894DEBF35
:1048B0000FBECDBF8C0185E0F801DE011D96019091
:1048C0000D928A95E1F7D8013C9111962C911197A0
:1048D0001296EC9012971396CD90DC90149750910D
:1048E0004B0560914C0580914E0590914F050097C6
:1048F00009F44FC16F3F19F45F3F09F44AC1B0900A
:104900004D05BB2009F4ECC040915005C816D906EE
:1049100028F0F601E81BF90BCF0104C080959095B3
:104920008C0D9D1DFF24F394883C910548F0F12CDB
:10493000407F09F09FC08BE495E00E94660421C18E
:10494000842F807F09F044C0621312C0531310C03B
:10495000E1100EC04F704061409350058BE495E02C
:104960000E94660480915005D80115968C932EC044
:10497000CD2819F12F3F11F43F3FF9F0FE2CE11043
:104980001CC0809182054091510556E0841709F4BE
:1049900058C090E0589FF001599FF00D1124EE5A35
:1049A000FA4F6181261306C06081361303C062810D
:1049B000611103C001968770E9CFFE2CEE2009F447
:1049C00021C180915005816080935005F12C1AC15E
:1049D00062130AC0531308C0E11006C0809150054D
:1049E000D80115968C93B0C03D872E878D859E8506
:1049F0000E94AD2A8823D1F1EE20C1F1209150050B
:104A0000822F82958F7090E0029774F080914B0511
:104A100090914C0598878F831986DB86CA862C87F0
:104A2000CE0107960E94660486E0F801ABE4B5E08B
:104A300001900D928A95E1F70E94EE23FF24F394F2
:104A4000E1C03D872E878D859E850E940723292FF3
:104A500022952F7030E0223031050CF0C7C09F70D6
:104A600009F0C1C0805E883008F4CCC0C8010E9443
:104A70006604E4CF621314C0531312C0E11010C0D7
:104A800080915005F8018583C8010E94660486E084
:104A9000EBE4F5E0DF011D928A95E9F7FB2CB2C04B
:104AA0003D872E878D859E850E94AD2A8823F1F251
:104AB000EE20E1F220915005822F82958F7090E0D8
:104AC00002970CF4B1CF80914B0590914C059A83DD
:104AD00089831B82DD82CC822E83CE010196A2CFF8
:104AE000C816D90638F0C81AD90AB8ECCB16D104C2
:104AF00050F007C0809590958C0D9D1D883C9105C8
:104B000010F0F12C3EC0FE2CEE2009F4AFCF621362
:104B100027C0531325C02091500520FD18C0822FB7
:104B200082958F70482F50E04115510581F0F801B2
:104B300025834F30510541F08F5F982F9295907FDC
:104B4000822F8F70892B8583C8010E94660486E0BE
:104B5000F801ABE4B5E001900D928A95E1F752C0FF
:104B60003D872E878D859E850E94AD2A81115CCF61
:104B700080915005816080935005C8010E946604B1
:104B800041C0EBE4F5E086E0DF011D928A95E9F78C
:104B900039C0EE2009F46ACF3D872E878D859E852A
:104BA0000E94AD2AF82E882309F460CF86E0F80130
:104BB000ABE4B5E001900D928A95E1F780914B0549
:104BC00090914C050E94072392959F70963041F476
:104BD00080914A0591E0892780934A059093490581
:104BE0000E94EE230FC081113DCF0CC0243031054F
:104BF0000CF03CCF9F7009F435CFF8019581907F80
:104C000009F030CF8F2D61960FB6F894DEBF0FBE3E
:104C1000CDBFDF91CF911F910F91FF90EF90DF906B
:104C2000CF90BF9008959F92AF92BF92CF92DF92A4
:104C3000EF92FF920F931F93CF93DF936C018091BC
:104C40001601C82FCC0FCC0FC80FD5E0DC0FD13325
:104C500008F0D0E360910106669566958091F505B0
:104C60009091F6050E94951F182F80E4810F0E94F5
:104C7000131F90E8F92EF80E812F0E94131F20E8D1
:104C8000922E980ECD1700F5AC2EB12CF501E35CF9
:104C9000FC4F8081909117019823A1F06091FE054F
:104CA0007091FF0580910006E12E0C2F292D4F2DCC
:104CB000F60109950E94A01F462F282F672FC501D6
:104CC0000E94C51ECF5FDECF81E0D03308F080E0C8
:104CD000DF91CF911F910F91FF90EF90DF90CF90D8
:104CE000BF90AF909F9008956F927F928F929F9206
:104CF000AF92BF92CF92DF92EF920F931F93CF9319
:104D0000DF934C0180911601C82FCC0FCC0FC80F38
:104D1000D5E0DC0FD13308F0D0E360910106669551
:104D20008091F5059091F6050E94951F182FCD17DB
:104D300008F044C06C2E712CF301E35CFC4F9081B1
:104D4000809117018923C1F1F301EE0FFF1FE35298
:104D5000FD4FC080D12C80E7C81AD108F301EE0FB7
:104D6000FF1FE252FD4FA080B12CE0E2AE1AB10865
:104D7000CC9C9001CD9C300D300D1124AA9CC0011B
:104D8000AB9C900D900D1124820F931F0E94341F35
:104D9000082F6091FE057091FF0580910006E12EBD
:104DA0009501A601F40109950E94A01F462F282F06
:104DB000672FC3010E94C51ECF5FB9CF81E0D033FA
:104DC00008F080E0DF91CF911F910F91EF90DF907D
:104DD000CF90BF90AF909F908F907F906F900895ED
:104DE000CF92DF92EF92FF920F931F93CF93DF93B7
:104DF0007C0180911601C82FCC0FCC0FC80FD5E0D5
:104E0000DC0FD13308F0D0E3609101066695809104
:104E1000F5059091F6050E94951F182FCD1778F58E
:104E2000CC2ED12CF601E35CFC4F908180911701D0
:104E3000892319F1F601EE0FFF1FE252FD4F208189
:104E400030E020523109F601EE0FFF1FE352FD4F13
:104E5000408150E0405751096091FE057091FF0577
:104E600080910006012FF70109950E94A01F462F8F
:104E7000282F672FC6010E94C51ECF5FCFCF81E0CC
:104E8000D03308F080E0DF91CF911F910F91FF9018
:104E9000EF90DF90CF900895DF92EF92FF920F9303
:104EA0001F93CF93DF937C0190911601C92FCC0FF4
:104EB000CC0FC90FD5E0DC0FD13308F0D0E36091FF
:104EC0000106669566958091F5059091F6050E941C
:104ED000951FD82ECD17F0F40C2F10E0F801E35CED
:104EE000FC4F808190911701982391F06091FE050D
:104EF0007091FF05809100062D2D4C2FF70109952B
:104F00000E94A01F462F282F672FC8010E94C51E90
:104F1000CF5FE0CF81E0D03308F080E0DF91CF9128
:104F20001F910F91FF90EF90DF900895CF93DF9343
:104F3000EC0180EEFE01099581EEFE01DF91CF913B
:104F40000994CF92DF92FF920F931F93CF93DF9339
:104F50001F92CDB7DEB7F82E8B0199830E9498156A
:104F6000998181111CC0CF2CD92E01151105B1F0EA
:104F70008091E80085FD0AC08091E8008E778093DB
:104F8000E8000E949815882381F309C0F6018191F9
:104F90006F018093F10001501109E7CF80E00F907D
:104FA000DF91CF911F910F91FF90DF90CF900895E7
:104FB0001F93CF93DF93CDB7DEB7AA970FB6F894C0
:104FC000DEBF0FBECDBFEDEEF5E088E08E0F909115
:104FD000F10091938E13FBCF8091EE05833009F49D
:104FE00060C030F4813071F0823009F49CC0B3C0ED
:104FF0008A3009F488C08B3009F46BC0893009F01D
:10500000AAC020C08091ED05813A09F0A4C080912A
:10501000E800877F8093E8008091F1059091F20588
:10502000892B21F460E289EC95E003C060E080E028
:1050300090E070E00E945C178091E8008B7780938D
:10504000E80089C08091ED05813209F084C080912B
:10505000F1059091F205029708F07DC08091E8007B
:10506000877F8093E8008091E80082FD05C08091F1
:10507000EB058111F8CF6FC02091F3008091F20011
:1050800090E0922B029729F48091F1008B7F813080
:1050900021F48091F1008093C8058091E8008B771E
:1050A00056C08091ED05813A09F055C08091F10517
:1050B0009091F205892B09F04EC08091E800877F1E
:1050C0008093E8008091E80080FFFCCF809115017B
:1050D00039C08091ED058132F1F58091F105909113
:1050E000F205892BC1F58091E800877F8093E80065
:1050F0000E94CA158091EF05809315011092C60594
:105100000E94E22A28C08091ED05813221F580912C
:10511000E800877F8093E8000E94CA158091F0051F
:105120008093C70518C08091ED05813AA1F4809164
:10513000E800877F8093E8008091E80080FFFCCF43
:105140008091C7058093F1008091E8008E7780936D
:10515000E8000E94CA158091E80083FFD6C18091C3
:10516000ED059091EE05492F50E04A30510508F0C9
:10517000CCC1FA01E956FF4F0C94832F803821F0FF
:10518000823809F0C2C108C08091E9059091EA0512
:10519000992389F082600FC08091F1058F7087306C
:1051A00008F0B3C18093E9008091EB0085FB88276C
:1051B00080F91092E9009091E800977F9093E800C1
:1051C0008093F1001092F10074C1282F2D7F09F017
:1051D0009CC1882319F0823061F097C18091EF055E
:1051E000813009F092C1933009F080E08093EA05A4
:1051F0002EC08091EF0581112AC08091F1058F703A
:105200002FEF280F263008F080C18093E90020910D
:10521000EB0020FF1CC0933021F48091EB008062F2
:1052200014C09091EB0090619093EB0021E030E08E
:10523000A90102C0440F551F8A95E2F74093EA0086
:105240001092EA008091EB0088608093EB0010924E
:10525000E9008091E800877F2FC1811156C110912C
:10526000EF051F778091E3008078812B8093E30026
:105270008091E800877F8093E8000E94CA158091A2
:10528000E80080FFFCCF8091E30080688093E3001A
:10529000111102C082E001C083E08093EB0535C1AB
:1052A0008058823008F031C18091EF059091F0056F
:1052B0008C3D53E0950779F583E08A838AE2898300
:1052C0004FB7F894DE01139620E03EE051E2E32F61
:1052D000F0E050935700E49120FF03C0E295EF7097
:1052E0003F5FEF708E2F90E0EA3010F0C79601C05C
:1052F000C0968D939D932F5F243149F74FBF8091C6
:10530000E800877F8093E8006AE270E0CE010196B2
:105310000E945C17BDC04091F1055091F205292F04
:10532000332723303105B9F06CF42130310509F40D
:10533000FBC02230310509F0E8C08BE390E0E7E0E4
:10534000F8E054C02132310509F433C0223231056E
:1053500009F43CC0DAC0992781309105D1F05CF4A2
:10536000892B09F0D2C0EAE8F8E0E4918E2F90E0B2
:10537000EAE8F8E038C08230910599F0039709F027
:10538000C4C0E4E5F8E0E4918E2F90E0E4E5F8E0B5
:105390002AC0E2E7F8E0E4918E2F90E0E2E7F8E03F
:1053A00022C0EAE5F8E0E4918E2F90E0EAE5F8E02B
:1053B0001AC04115510509F4BCC04130510509F02E
:1053C000A4C089E090E0E2E3F8E010C04115510587
:1053D00009F4B4C04130510509F097C081E790E06D
:1053E000E6E5F7E003C0009709F48FC02091E800DC
:1053F000277F2093E8002091F3053091F4052817CA
:10540000390708F4C90140E0009789F12091EB05C4
:10541000222309F43DC02530D9F12091E80023FD75
:1054200037C02091E80022FD2FC02091E80020FF26
:10543000EBCF4091F3002091F20030E0342B009745
:1054400059F02830310540F444914093F1003196F1
:1054500001972F5F3F4FF3CF41E02830310509F02E
:1054600040E02091E8002E772093E800CDCF411155
:10547000CDCF0AC08091EB05882351F0853041F0F3
:105480008091E80083FD04C08091E80082FFF2CFA4
:105490008091E8008B778093E80037C08038A9F5C9
:1054A0008091E800877F8093E8008091EC058093ED
:1054B000F1008091E8008E778093E8000E94CA1581
:1054C00024C0811122C01091EF051230F0F48091B8
:1054D000E800877F8093E8001093EC050E94CA15CE
:1054E000111106C08091E30087FD02C081E001C078
:1054F00084E08093EB0542E061EC81E00E94E915D5
:1055000042E261EC82E00E94E9158091E80083FFAD
:105510001AC08091E800877F8093E8008091EB00BB
:1055200080628093EB000FC082E190E0E2E4F8E05B
:105530005DCF89E090E0E9E1F8E058CF80E490E0C9
:10554000E7ECF7E053CFAA960FB6F894DEBF0FBE94
:10555000CDBFDF91CF911F9108950E940723292F7E
:105560002F7092959F70E92FF0E03297EE30F105A1
:10557000B8F4EF55FF4F0C94832F803F99F018F447
:10558000883E70F40FC0843F59F40CC0883E50F040
:10559000813F31F407C0822F8695869586950895C0
:1055A00080E0089581E008951092C0051092BF0533
:1055B0000E94802280E090E00E94941E80E090E0B3
:1055C0000C947E1E80911501882331F08091960302
:1055D00087FF02C08EE101C086E0EBE2F5E0DF016B
:1055E0001D928A95E9F70C94D42A882341F080957E
:1055F0009091C60589238093C6050C948022089556
:10560000882339F09091C605892B8093C6050C94A8
:1056100080220895882309F458C0682F823869F4DD
:105620000E94AA1E81FF51C069E389E295E00E94B1
:1056300078210E94802269E30EC0833891F40E9491
:10564000AA1E80FF42C063E589E295E00E947821AE
:105650000E94802263E589E295E00E944D210C942E
:105660008022843869F40E94AA1E82FF2EC067E45B
:1056700089E295E00E9478210E94802267E4EBCFC6
:105680008CEF860F813A38F380E2860F883070F411
:10569000677081E090E001C0880F6A95EAF7809515
:1056A0009091C60589238093C605D9CF8BE5860FD7
:1056B000833020F480E090E00C94941E685A6731A7
:1056C00020F480E090E00C947E1E0895882309F475
:1056D0000DC1682F8238B1F40E94AA1E81FD06C157
:1056E00069E389E295E00E9478210E9480222FEFF1
:1056F00081EE94E0215080409040E1F700C000002E
:1057000069E317C08338D9F40E94AA1E80FDEEC059
:1057100063E589E295E00E9478210E9480222FEFC4
:1057200081EE94E0215080409040E1F700C00000FD
:1057300063E589E295E00E944D210C948022843833
:10574000B1F40E94AA1E82FDD1C067E489E295E00F
:105750000E9478210E9480222FEF81EE94E0215058
:1057600080409040E1F700C0000067E4E2CF8CEF9A
:10577000860F813A28F489E295E00E947821DDCFF6
:1057800080E2860F883068F4677081E090E001C0A5
:10579000880F6A95EAF79091C605892B8093C60514
:1057A000CCCF8BE5860F833070F4653A29F0663AEA
:1057B00031F083E890E005C081E890E002C082E823
:1057C00090E00C94941E88E5860F873108F08EC017
:1057D000683A09F445C0693A09F445C06A3A09F4DF
:1057E00045C06B3A09F445C06C3A09F445C06B3BBF
:1057F00009F445C06C3B09F445C06D3A09F445C055
:10580000603B09F445C06E3A09F445C06F3A09F4AB
:1058100045C0613B09F445C0623B09F445C0633BA8
:1058200009F445C0643B09F445C0653B09F445C033
:10583000663B09F445C0673B09F445C0683B09F481
:1058400045C0693B09F445C06D3B09F445C06E3B5A
:1058500009F445C06A3B09F445C080E090E044C0CB
:1058600082EE90E041C089EE90E03EC08AEE90E08A
:105870003BC085EB90E038C086EB90E035C083EB11
:1058800090E032C084EB90E02FC087EB90E02CC01A
:105890008CEC90E029C08DEC90E026C083E891E08C
:1058A00023C08AE891E020C082E991E01DC084E92C
:1058B00091E01AC081E292E017C083E292E014C046
:1058C00084E292E011C085E292E00EC086E292E0AE
:1058D0000BC087E292E008C08FE690E005C080E749
:1058E00090E002C08AE292E00C947E1E0895CF936D
:1058F000C82F0E94662BC93349F42FEF87EE93E03F
:10590000215080409040E1F700C000008C2FCF91E3
:105910000C940A2B1092B9008CE08093B800089583
:10592000EF92FF920F931F93CF93DF93182FEB010A
:105930001092BC0084EA8093BC000E9418217C0174
:105940009091BC0097FD0EC0CF3F8FEFD807C1F3F9
:105950000E9418218E199F098C179D0788F38EEFDE
:105960009FEF2EC09091B900987F983041F09091B0
:10597000B900987F903119F08FEF9FEF21C01093FD
:10598000BB0084E88093BC000E9418218C01909198
:10599000BC0097FD0CC0CF3F8FEFD807C1F30E942A
:1059A0001821801B910B8C179D0788F3D8CF80910D
:1059B000B900887F883111F08034F1F680E090E002
:1059C000DF91CF911F910F91FF90EF9008950F936A
:1059D0001F93CF93DF93EB018093BB0084E8809308
:1059E000BC000E9418218C019091BC0097FD0EC054
:1059F000CF3F8FEFD807C1F30E941821801B910B76
:105A00008C179D0788F38EEF9FEF0CC02091B90093
:105A1000287F81E090E0283211F480E090E09195B9
:105A200081959109DF91CF911F910F9108950F9367
:105A30001F93CF93DF93EC0184E88093BC000E9416
:105A400018218C019091BC0097FD0EC0CF3F8FEFC5
:105A5000D807C1F30E941821801B910B8C179D075A
:105A600088F38EEF9FEF03C08091BB0090E0DF9141
:105A7000CF911F910F910895CF92DF92EF92FF92F5
:105A80000F931F93CF93DF936B018A017901B901C3
:105A90000E94902CE6010C0D1D1DC017D10761F46A
:105AA00024E92093BC00DF91CF911F910F91FF90CB
:105AB000EF90DF90CF90089597FDF2CFB7018991D5
:105AC0000E94E72CEACF84E98093BC000895DC01B2
:105AD000CB01FC01F999FECF06C0F2BDE1BDF89AF9
